:020000040800F2
:1000000000040020C1010008E1240008E1240008E8
:1000100031170008E1240008E1240008E124000869
:10002000E1240008E1240008E1240008314400082C
:10003000E1240008E1240008E124000831AB0008B5
:10004000E124000811790008A17A0008F17A00087B
:10005000E1240008E124000851760008A176000898
:10006000F17600084177000891770008916B00084D
:10007000E16B0008316C0008816C0008D16C00084D
:10008000216D0008716D0008C1740008917C0008A2
:10009000017D0008B17D0008617E0008E17700085D
:1000A000E1240008E124000841A40008E12400083C
:1000B000F1A6000831A7000871A70008218C0008EC
:1000C000618D0008E1240008E1240008E124000813
:1000D000E1240008E1240008E1240008F1AB000855
:1000E0007178000861790008B179000881A40008DE
:1000F000E1240008E1240008E1240008C16D0008A3
:10010000E1240008F17F0008B1A70008E1240008FD
:10011000E1240008E124000801A40008E12400080B
:10012000116E0008616E0008B16E0008016F0008D2
:10013000516F0008E1240008017A0008E12400085A
:10014000E1240008E1240008E124000841A000089F
:10015000A16F0008F16F000841700008E124000859
:10016000E1240008E1240008E1240008E12400085B
:10017000517A0008E1240008F1120008E124000887
:10018000E1240008E1240008E1240008E12400083B
:10019000E1240008E1240008E1240008E12400082B
:1001A000E1240008E1240008E1240008E12400081B
:1001B000E1240008E1240008E1240008E12400080B
:1001C00072B62E4880F3098840F20000CCF200009D
:1001D0004EF63471CEF20001086040F20000C0F229
:1001E000F0004EF68851CEF2000108604FF000009A
:1001F000E1EE100A4EF63C71CEF2000108600620D6
:1002000080F31488BFF36F8F0AF03AFE4FF0553039
:100210001B491C4A91423CBF41F8040BFAE71A49BA
:10022000164A91423CBF41F8040BFAE71749184AB5
:10023000184B9A423EBF51F8040B42F8040BF8E702
:1002400000201549154A91423CBF41F8040BFAE7DA
:1002500002F02EF9124C134DAC4203DA54F8041B91
:100260008847F9E700F0D4FF0F4C104DAC4203DA99
:1002700054F8041B8847F9E702F02AB90008002067
:1002800000000020000400200004002048F90008BD
:1002900000080020DC110020E011002010280020C0
:1002A000C0010008C0010008C0010008C00100082A
:1002B0002DE9F04F2DED108AC1F80CD0D0F80CD0FC
:1002C000BDEC108ABDE8F08F02F04AFA03F080FA24
:1002D000002383F311882846A047002003F018F874
:1002E00003F05EFA02F01CFA02F03AFE02F038FA6D
:1002F00003F06EFA00DFFEE70000000000000000DF
:1003000081F0004102E000BF83F0004330B54FEAC6
:1003100041044FEA430594EA050F08BF90EA020F33
:100320001FBF54EA000C55EA020C7FEA645C7FEAC6
:10033000655C00F0E2804FEA5454D4EB5555B8BFE9
:100340006D420CDD2C4480EA020281EA030382EA5A
:10035000000083EA010180EA020281EA0303362DEC
:1003600088BF30BD11F0004F4FEA01314FF4801CBF
:100370004CEA113102D0404261EB410113F0004FD1
:100380004FEA03334CEA133302D0524263EB430388
:1003900094EA050F00F0A780A4F10104D5F1200E26
:1003A0000DDB02FA0EFC22FA05F2801841F1000181
:1003B00003FA0EF2801843FA05F359410EE0A5F155
:1003C00020050EF1200E012A03FA0EFC28BF4CF086
:1003D000020C43FA05F3C01851EBE37101F000453C
:1003E00007D54FF0000EDCF1000C7EEB00006EEB49
:1003F0000101B1F5801F1BD3B1F5001F0CD34908D3
:100400005FEA30004FEA3C0C04F101044FEA445229
:1004100012F5800F80F09A80BCF1004F08BF5FEAB0
:10042000500C50F1000041EB045141EA050130BD90
:100430005FEA4C0C404141EB010111F4801FA4F133
:100440000104E9D191F0000F04BF01460020B1FA88
:1004500081F308BF2033A3F10B03B3F120020CDAC0
:100460000C3208DD02F1140CC2F10C0201FA0CF09E
:1004700021FA02F10CE002F11402D8BFC2F1200C03
:1004800001FA02F120FA0CFCDCBF41EA0C019040B9
:10049000E41AA2BF01EB0451294330BD6FEA040402
:1004A0001F3C1CDA0C340EDC04F11404C4F12002ED
:1004B00020FA04F001FA02F340EA030021FA04F3FF
:1004C00045EA030130BDC4F10C04C4F1200220FA56
:1004D00002F001FA04F340EA0300294630BD21FA94
:1004E00004F0294630BD94F0000F83F4801306BF5A
:1004F00081F480110134013D4EE77FEA645C18BF4E
:100500007FEA655C29D094EA050F08BF90EA020FE4
:1005100005D054EA000C04BF1946104630BD91EADC
:10052000030F1EBF0021002030BD5FEA545C05D1DF
:100530004000494128BF41F0004130BD14F580041E
:100540003CBF01F5801130BD01F0004545F0FE4192
:1005500041F470014FF0000030BD7FEA645C1ABFC7
:10056000194610467FEA655C1CBF0B46024650EAFE
:10057000013406BF52EA033591EA030F41F400212A
:1005800030BD00BF90F0000F04BF0021704730B5B0
:100590004FF4806404F132044FF000054FF0000185
:1005A00050E700BF90F0000F04BF0021704730B546
:1005B0004FF4806404F1320410F0004548BF40421B
:1005C0004FF000013EE700BF42004FEAE2014FEA70
:1005D00031014FEA02701FBF12F07F4393F07F4F4B
:1005E00081F06051704732F07F4208BF704793F04E
:1005F0007F4F04BF41F40021704730B54FF4607461
:1006000001F0004521F000411CE700BF50EA010263
:1006100008BF704730B54FF000050AE050EA01020C
:1006200008BF704730B511F0004502D5404261EB7C
:1006300041014FF4806404F132045FEA915C3FF4BD
:10064000D8AE4FF003025FEADC0C18BF03325FEA5A
:10065000DC0C18BF033202EBDC02C2F1200300FA0B
:1006600003FC20FA02F001FA03FE40EA0E0021FA30
:1006700002F11444BDE600BF0000000000000000CD
:1006800070B54FF0FF0C4CF4E06C1CEA11541DBF28
:100690001CEA135594EA0C0F95EA0C0F00F0DEF8F3
:1006A0002C4481EA030621EA4C5123EA4C5350EAD8
:1006B000013518BF52EA033541F4801143F4801329
:1006C00038D0A0FB02CE4FF00005E1FB02E506F0BA
:1006D0000042E0FB03E54FF00006E1FB03569CF00F
:1006E000000F18BF4EF0010EA4F1FF04B6F5007F15
:1006F00064F5407404D25FEA4E0E6D4146EB060687
:1007000042EAC62141EA55514FEAC52040EA5E500F
:100710004FEACE2EB4F1FD0C88BFBCF5E06F1ED8B9
:10072000BEF1004F08BF5FEA500E50F1000041EBF0
:10073000045170BD06F0004646EA010140EA02009D
:1007400081EA0301B4EB5C04C2BFD4EB0C0541EABF
:10075000045170BD41F480114FF0000E013C00F3D4
:10076000AB8014F1360FDEBF002001F0004170BDF8
:10077000C4F10004203C35DA0C341BDC04F1140411
:10078000C4F1200500FA05F320FA04F001FA05F29D
:1007900040EA020001F0004221F0004110EBD3706A
:1007A00021FA04F642EB06015EEA430E08BF20EA96
:1007B000D37070BDC4F10C04C4F1200500FA04F339
:1007C00020FA05F001FA04F240EA020001F00041CB
:1007D00010EBD37041F100015EEA430E08BF20EA3E
:1007E000D37070BDC4F1200500FA05F24EEA020E86
:1007F00020FA04F301FA05F243EA020321FA04F0B5
:1008000001F0004121FA04F220EA020000EBD3706B
:100810005EEA430E08BF20EAD37070BD94F0000F6B
:100820000FD101F00046400041EB010111F4801F9F
:1008300008BF013CF7D041EA060195F0000F18BF50
:10084000704703F00046520043EB030313F4801F8C
:1008500008BF013DF7D043EA0603704794EA0C0F46
:100860000CEA135518BF95EA0C0F0CD050EA41065C
:1008700018BF52EA4306D1D181EA030101F00041D9
:100880004FF0000070BD50EA410606BF1046194601
:1008900052EA430619D094EA0C0F02D150EA01360D
:1008A00013D195EA0C0F05D152EA03361CBF10464E
:1008B00019460AD181EA030101F0004141F0FE41ED
:1008C00041F470014FF0000070BD41F0FE4141F471
:1008D000780170BD70B54FF0FF0C4CF4E06C1CEA71
:1008E00011541DBF1CEA135594EA0C0F95EA0C0F26
:1008F00000F0A7F8A4EB050481EA030E52EA0335E1
:100900004FEA013100F088804FEA03334FF0805501
:1009100045EA131343EA12634FEA022245EA11152E
:1009200045EA10654FEA00260EF000419D4208BFDF
:10093000964244F1FD0404F5407402D25B084FEA8C
:100940003202B61A65EB03055B084FEA32024FF438
:1009500080104FF4002CB6EB020E75EB030E22BF95
:10096000B61A754640EA0C005B084FEA3202B6EB55
:10097000020E75EB030E22BFB61A754640EA5C0004
:100980005B084FEA3202B6EB020E75EB030E22BF94
:10099000B61A754640EA9C005B084FEA3202B6EB95
:1009A000020E75EB030E22BFB61A754640EADC0054
:1009B00055EA060E18D04FEA051545EA16754FEAB6
:1009C00006164FEAC30343EA52734FEAC2025FEAD4
:1009D0001C1CC0D111F4801F0BD141EA00014FF063
:1009E00000004FF0004CB6E711F4801F04BF014334
:1009F0000020B4F1FD0C88BFBCF5E06F3FF6AFAE50
:100A0000B5EB030C04BFB6EB020C5FEA500C50F1DF
:100A1000000041EB045170BD0EF0004E4EEA113162
:100A200014EB5C04C2BFD4EB0C0541EA045170BD69
:100A300041F480114FF0000E013C90E645EA060EAD
:100A40008DE60CEA135594EA0C0F08BF95EA0C0FDB
:100A50003FF43BAF94EA0C0F0AD150EA01347FF423
:100A600034AF95EA0C0F7FF425AF104619462CE7FA
:100A700095EA0C0F06D152EA03353FF4FDAE10465D
:100A8000194622E750EA410618BF52EA43067FF4AE
:100A9000C5AE50EA41047FF40DAF52EA43057FF43E
:100AA000EBAE12E7000000000000000000000000B4
:100AB0004FF0FF3C06E000BF4FF0010C02E000BF2A
:100AC0004FF0010C4DF804CD4FEA410C7FEA6C5C0D
:100AD0004FEA430C18BF7FEA6C5C1BD001B050EAB0
:100AE000410C0CBF52EA430C91EA030F02BF90EA9B
:100AF000020F0020704710F1000F91EA030F58BF5A
:100B0000994208BF90422CBFD8176FEAE37040F0BB
:100B1000010070474FEA410C7FEA6C5C02D150EA59
:100B2000013C07D14FEA430C7FEA6C5CD6D152EA14
:100B3000033CD3D05DF8040B704700BF84461046D9
:100B400062468C461946634600E000BF01B5FFF7D8
:100B5000B7FF002848BF10F1000F01BD4DF808EDA8
:100B6000FFF7F4FF0CBF012000205DF808FB00BF79
:100B70004DF808EDFFF7EAFF34BF012000205DF8D3
:100B800008FB00BF4DF808EDFFF7E0FF94BF012020
:100B900000205DF808FB00BF4DF808EDFFF7CEFF21
:100BA00094BF012000205DF808FB00BF4DF808ED60
:100BB000FFF7C4FF34BF012000205DF808FB00BF31
:100BC0004FEA410212F5001215D211D56FF4787375
:100BD000B3EB625212D94FEAC12343F0004343EA18
:100BE000505311F0004F23FA02F018BF40427047F3
:100BF0004FF00000704750EA013005D111F000407D
:100C000008BF6FF0004070474FF00000704700BF12
:100C100053B94AB9002908BF00281CBF4FF0FF3163
:100C20004FF0FF3000F074B9ADF1080C6DE904CE5F
:100C300000F006F8DDF804E0DDE9022304B07047B7
:100C40002DE9F047089E04468846002B4BD18A4286
:100C5000154667D9B2FA82F24AB1C2F1200701FA09
:100C600002F320FA07F7954047EA030894404FEA59
:100C7000154E230CB8FBFEF71FFA85FC0EFB1788F8
:100C800043EA084307FB0CF1994209D9EB1807F135
:100C9000FF3080F01B81994240F21881023F2B44C3
:100CA0005B1AA4B2B3FBFEF00EFB103344EA03441C
:100CB00000FB0CFCA44509D92C1900F1FF3380F08E
:100CC0000781A44540F2048102382C4440EA0740E1
:100CD000A4EB0C0400271EB1D4400023C6E9004356
:100CE0003946BDE8F0878B4209D9002E00F0EB8031
:100CF0000027C6E9000138463946BDE8F087B3FA57
:100D000083F7002F47D18B4202D3824200F2FA8050
:100D1000841A61EB030301209846002EE0D0C6E957
:100D20000048DDE702B9FFDEB2FA82F2002A40F0A5
:100D30008F80491B4FEA154E1FFA85F80127B1FB3A
:100D4000FEFC230C0EFB1C1143EA014308FB0CF1D3
:100D5000994207D9EB180CF1FF3002D2994200F208
:100D6000CD808446591AA3B2B1FBFEF00EFB1014DD
:100D700043EA044408FB00F8A04507D92C1900F108
:100D8000FF3302D2A04500F2B6801846A4EB080457
:100D900040EA0C409FE7C7F1200CBB4022FA0CFE52
:100DA0004EEA030E01FA07F420FA0CF521FA0CF3CF
:100DB0004FEA1E482543B3FBF8F92C0C08FB193306
:100DC0001FFA8EFA44EA034309FB0AF49C4202FA32
:100DD00007F200FA07F10BD91EEB030309F1FF300C
:100DE00080F087809C4240F28480A9F1020973441C
:100DF0001B1BADB2B3FBF8F008FB103345EA03440C
:100E000000FB0AFAA24508D91EEB040400F1FF33E7
:100E10006BD2A24569D90238744440EA0940A0FB6C
:100E20000289A4EB0A044C45C2464B4654D351D028
:100E3000002E69D0B1EB0A0564EB030404FA0CFC44
:100E4000FD40FC404CEA0505C6E90054002747E791
:100E5000C2F1200320FA03F7954001FA02F021FACB
:100E600003F34FEA154E3843010CB3FBFEF71FFAAC
:100E700085F80EFB173341EA034107FB08F38B4269
:100E800004FA02F407D9691807F1FF3C2FD28B420C
:100E90002DD9023F2944CB1A81B2B3FBFEF00EFBE1
:100EA000103341EA034100FB08F38B4207D969186C
:100EB00000F1FF3C17D28B4215D902382944C91AD8
:100EC00040EA07473BE73746304609E70746E7E68B
:100ED0001846FBE64145ABD2B8EB020A69EB0E02BD
:100EE00001381346A4E76046E9E7184695E76746E8
:100EF000D1E781467CE702382C4447E7ACF1020C8D
:100F00002B442FE7384608E73746E9E600000000A3
:100F1000704700BF0000000000000000000000005B
:100F2000844641EA000313F003036DD1403A41D3F4
:100F300051F8043B40F8043B51F8043B40F8043BB3
:100F400051F8043B40F8043B51F8043B40F8043BA3
:100F500051F8043B40F8043B51F8043B40F8043B93
:100F600051F8043B40F8043B51F8043B40F8043B83
:100F700051F8043B40F8043B51F8043B40F8043B73
:100F800051F8043B40F8043B51F8043B40F8043B63
:100F900051F8043B40F8043B51F8043B40F8043B53
:100FA00051F8043B40F8043B51F8043B40F8043B43
:100FB000403ABDD2303211D351F8043B40F8043BE3
:100FC00051F8043B40F8043B51F8043B40F8043B23
:100FD00051F8043B40F8043B103AEDD20C3205D3F3
:100FE00051F8043B40F8043B043AF9D2043208D0EB
:100FF000D2071CBF11F8013B00F8013B01D30B885D
:1010000003806046704700BF082A13D38B078DD03A
:1010100010F003038AD0C3F10403D21ADB071CBF0C
:1010200011F8013B00F8013B80D331F8023B20F876
:10103000023B7BE7043AD9D3013A11F8013B00F8AF
:10104000013BF9D20B7803704B7843708B78837037
:101050006046704700000000000000000000000033
:1010600090F800F06DE9024520F007016FF0000CE8
:1010700010F0070491F820F040F049804FF0000490
:101080006FF00700D1E9002391F840F000F108006B
:1010900082FA4CF2A4FA8CF283FA4CF3A2FA8CF3A3
:1010A0004BBBD1E9022382FA4CF200F10800A4FA0A
:1010B0008CF283FA4CF3A2FA8CF3E3B9D1E904235E
:1010C00082FA4CF200F10800A4FA8CF283FA4CF395
:1010D000A2FA8CF37BB9D1E9062301F1200182FA4F
:1010E0004CF200F10800A4FA8CF283FA4CF3A2FA55
:1010F0008CF3002BC6D0002A04BF04301A4612BA63
:10110000B2FA82F2FDE8024500EBD2007047D1E965
:10111000002304F00305C4F100004FEAC50514F0F4
:10112000040F91F840F00CFA05F562EA05021CBFC5
:1011300063EA050362464FF00004A9E700000000DF
:1011400001F0FF01102A2BDB10F0070F08D010F878
:10115000013B013A8B422DD010F0070F42B3F6D17C
:10116000F0B441EA012141EA014122F007047FF095
:1011700000070023F0E80256083C85EA010586EAEC
:10118000010685FA47F5A3FA87F586FA47F6A5FA28
:1011900087F68EB9EED1F0BC01F0FF0102F0070234
:1011A00032B110F8013B013A83EA010313B1F8D1DF
:1011B0000020704701387047002D06BF35460338C0
:1011C000073815F0010F07D1013015F4807F02BFF9
:1011D000013015F4C03F0130F0BC0138704700BF4A
:1011E0004FEA410C7FEA6C5C02D150EA013C0AD123
:1011F0004FEA430C7FEA6C5C02D152EA033C02D115
:101200004FF0000070474FF00100704700000000F1
:1012100000B50F4B83B01B68019303F069F901F02F
:1012200077F900F02DFA0B490B4804F001FC00F0AF
:10123000C7FF0A490A4803F04BFB4FF6FF71084805
:1012400003F0B6FB00F01CFE00F07AFCFEE700BFE6
:10125000000800200408002064270020E0E80008BF
:10126000D426002000000000000000000000000064
:1012700000B5084B83B01A680192019A1B689A4224
:1012800005D1054803B05DF804EB01F0A9B9FFF7FB
:10129000EFFF00BF00080020C0E8000800000000C9
:1012A00030B5104D81682B680F4A83B001930B68ED
:1012B00023F001030B608168946A03E0936A1B1BAF
:1012C000C72B09D8086810F00100F7D1019A2B68E4
:1012D0009A4204D103B030BD4FF0FF30F6E7FFF77C
:1012E000C7FF00BF000800203019002000000000E8
:1012F000F0B5284D83B02B68019302F019FA01F084
:101300008FFA254B1E69F20715D55A69234C42F016
:1013100001025A612778BB1F012B2AD90522636875
:1013200022701B680BB120469847042F27D0022F4C
:1013300025D003232370B30710D5174A174C5369E0
:1013400043F0020353612378032B1DD063689B682D
:101350000622227013B101211048984701F088FA43
:10136000019A2B689A4213D103B0BDE8F04003F014
:101370007FB8019A2B689A420AD103B0F0BD0223CC
:101380002370B307EAD5D8E72046FFF789FFDDE7EA
:10139000FFF76EFF0008002000000550EC11002050
:1013A00070B5164E16483368154D82B005224FF4BD
:1013B0008071019307F054FB20246B6983F48073E0
:1013C0006B61012001F0E4FE631E13F0FF04F4D111
:1013D0004FF4807140F206222983094807F040FB50
:1013E000019A33689A4206D10649074802B0BDE81F
:1013F000704003F045BBFFF73BFF00BF0008002033
:1014000000040240F0E80008B023002000000000C3
:101410002DE9F041204C214E88B0002335688DF82D
:101420001830804620468DF814101746079503F0B3
:101430003FFC2378012B0CD00420012306AACDE920
:1014400001300092414605AA204603F0C1FB054643
:1014500068B9114803F04CFC9DF818303B7000202F
:10146000079A33689A4215D108B0BDE8F08120464A
:1014700003F096FB23780A4A052B106004D0064837
:1014800003F036FC68B2EBE7204603F041FBFFF7C0
:1014900087FFF4E7FFF7ECFEB023002000080020F0
:1014A0000412002000000000000000000000000006
:1014B000F0B51F4C1F4E89B03368079307460025CF
:1014C00020468DF818108DF819208DF8145003F06F
:1014D000EFFB2378012B0CD0042205AB019502927F
:1014E00000933946022306AA204603F071FB054605
:1014F00048B90F4803F0FCFB0020079A33689A4272
:1015000014D109B0F0BD204603F04AFB23780A4A03
:10151000052B106004D0064803F0EAFB68B2ECE744
:10152000204603F0F5FAFFF73BFFF4E7FFF7A0FED4
:10153000B02300200008002004120020000000005A
:101540002DE9F0431E4C1F4E89B035688DF81710F9
:101550000746204690469946079503F0A9FB217857
:1015600001290CD004230293CDE9008939460123D7
:101570000DF11702204603F02BFB054650B9104829
:1015800003F0B6FB0020079A33689A4215D109B0E0
:10159000BDE8F083204603F003FB23780A4A052BBD
:1015A000106004D0064803F0A3FB68B2EBE72046C6
:1015B00003F0AEFAFFF7F4FEF4E7FFF759FE00BFC1
:1015C000B0230020000800200412002000000000CA
:1015D0002DE9F043254E83B034680194042A9DF828
:1015E0002890144605460F46984639D9B9F1000FA0
:1015F00014BF00224FF08052640002EB0863013CEC
:101600001C4405F00F0527F01F07202383F31188E2
:1016100002F0C6F83D4301F083F8154B1035DD604C
:101620001C6101F09DF802F0D3F8124B1A689A423F
:1016300004D0996993688A689A420DD3002383F392
:101640001188BFF36F8FBFF34F8F019A33689A42AF
:101650000AD103B0BDE8F083074800F0C1FFEDE711
:10166000064800F0BDFFC1E7FFF702FE00080020BA
:1016700090ED00E03019002080E9000860E90008E2
:1016800030B5224D224C2B68224A85B00393636803
:1016900043F004036360536A43F4803353622023AE
:1016A00083F3118802F07CF801F03AF817221A4B04
:1016B000E260236101F054F802F08AF8174B1A68CF
:1016C0009A4204D0996993688A689A4218D3002094
:1016D00080F31188BFF36F8FBFF34F8F03231D2259
:1016E00000904FF00051FFF773FF094A536843F031
:1016F00001035360039A2B689A4205D105B030BDAF
:10170000074800F06DFFE2E7FFF7B2FD0008002098
:1017100090ED00E000ED00E009000010301900201D
:1017200080E9000800000000000000000000000048
:1017300070B51A4D1A4C1B4E0FCD0FC49EB02A68BF
:10174000336822801D93EFF30981682203A8FFF715
:10175000E7FB154B9D6AAA0714D4EB0708D5124B7B
:1017600008995B6B114A00910D48802109F0F0FE49
:101770001D9A33689A420FD109481EB0BDE87040E7
:1017800000F02EBF099A5B6B0092A4F11000084A8A
:10179000802109F0DDFEE0E7FFF76AFD44E900087B
:1017A000081200200008002000ED00E020E90008F9
:1017B00000E9000800000000000000000000000038
:1017C00000B51F4B0278196883B00191E2B11D4A40
:1017D0004FF4005111834278EAB11A4A4FF4805114
:1017E00011838278F2B1174A4FF480411183C27895
:1017F000FAB9144A4FF400415183019A1B689A4286
:101800001CD103B05DF804FB0E4A4FF40051518324
:101810004278002AE1D10B4A4FF4805151838278FB
:10182000002AE0D1074A4FF480415183C278002A50
:10183000DFD0044A4FF400411183DEE7FFF718FDC3
:10184000000800200010024000000000000000001E
:1018500000B51F4B0278196883B00191E2B11D4AAF
:101860004FF4007111834278EAB11A4A4FF4807143
:1018700011838278F2B1174A4FF400611183C27864
:10188000FAB9144A4FF480615183019A1B689A4255
:101890001CD103B05DF804FB0E4A4FF40071518374
:1018A0004278002AE1D10B4A4FF48071518382784B
:1018B000002AE0D1074A4FF400615183C278002A20
:1018C000DFD0044A4FF480611183DEE7FFF7D0FCDC
:1018D000000800200010024000000000000000008E
:1018E00030B50C4A0C4B116883B04FF40055019190
:1018F0004FF480544FF400414FF480405D835C838B
:101900005883598301991368994201D103B030BDBE
:10191000FFF7AEFC000800200010024000000000AD
:1019200030B50C4A0C4B116883B04FF4007501912F
:101930004FF480744FF480614FF400605D835C83EA
:101940005883598301991368994201D103B030BD7E
:10195000FFF78EFC0008002000100240000000008D
:1019600010B50B4C0B48236882B0992200210193DB
:1019700003F08EFA019A23689A4206D105480021A5
:1019800002B0BDE8104003F06BBBFFF771FC00BF75
:1019900000080020102700200000000000000000C8
:1019A00010B50B4C0B48236882B09922002101939B
:1019B00003F06EFA019A23689A4206D10548002185
:1019C00002B0BDE8104003F04BBBFFF751FC00BF75
:1019D000000800202C27002000000000000000006C
:1019E00000B5084B83B01A680192019A1B689A42AD
:1019F00006D10548002103B05DF804EB03F098BA66
:101A0000FFF736FC0008002010270020000000002F
:101A100000B5084B83B01A680192019A1B689A427C
:101A200006D10548002103B05DF804EB03F080BA4D
:101A3000FFF71EFC000800202C27002000000000FB
:101A400070B51A4C1A4E2378326882B0022B01927C
:101A5000A26811D165781748013505F0070500EB3C
:101A60008500904763686570013B6360019A336845
:101A70009A4219D102B070BD012B08D00199336888
:101A8000994211D10C4802B0BDE87040104765780A
:101A90000848013D05F0070500EB850090476368A5
:101AA000657001336360E1E7FFF7E2FBA0120020FD
:101AB0000008002020EA000810EA000800000000EA
:101AC00070B51A4C1A4E2378326882B0012B0192FD
:101AD000A26811D165781748013505F0070500EBBC
:101AE000850090476368657001336360019A3368CD
:101AF0009A4219D102B070BD022B08D00199336807
:101B0000994211D10C4802B0BDE870401047657889
:101B10000848013D05F0070500EB85009047636824
:101B20006570013B6360E1E7FFF7A2FB88120020CC
:101B30000008002020EA000810EA00080000000069
:101B400070B51D4E1D4A1E4B30681E491E4C9160DB
:101B500082B00021D46001901C4C1D481D4D9D6039
:101B6000117051705160106154611B481B4A1C4D2B
:101B7000D8601C48197059705960C3E90425FFF7F3
:101B80001FFE1848FFF764FE1749204603F030F99E
:101B9000204603F01DFA2846144903F029F9019A5A
:101BA00033689A4205D1284602B0BDE8704003F080
:101BB0000FBAFFF75DFB00BF00080020A012002055
:101BC00088120020C11700086119000810270020A2
:101BD000E119000851180008A1190008111A00089D
:101BE0002C27002010EA0008D0E9000890E900083E
:101BF0000A490B4B09680B4A82B020200191402111
:101C000058834FF4806559834FF400644FF480404B
:101C100004215D835C8358835183FEE70008002024
:101C2000000C024000040240000000000000000020
:101C30002DE9F04F7D4C7E4AA3697E489A617E4A29
:101C4000AFB0012312682D920CA91A4602F010F8C9
:101C500011AD0AAB50222946009216A81A46CDE9CA
:101C60001155CDE90A330025744B1595CDE913556F
:101C700000F086FB16A9724A724800F0A9FBA3691E
:101C800093F8216016F0040640F083806B4FDFF874
:101C9000E0B1DFF8E091DFF8E08107F13403B2460C
:101CA000CDE9076609933FE05022644916A800F089
:101CB000BFFB99F80030B3B1634A1378002B70D0A2
:101CC000012B10D1614B07981B78614A03F1140175
:101CD000127837F911C008990130C0B261448242CC
:101CE0000790089171D098F80030A3B1594A137841
:101CF000002B60D0012B0ED1574B584A1B7812781D
:101D000007EB43010AF1010AB1F92E105FFA8AFAD2
:101D100052450E4472D0291D284601F079FAA36974
:101D200093F821305B0734D4202383F3118801F02A
:101D300037FD00F0F5FCA56A00F012FD01F048FD4A
:101D40002368A34207D0A2699B6892689A4202D294
:101D5000434800F045FC002383F311889BF80030D2
:101D6000002BA1D03F48099900F11203A0F1120203
:101D70000493A0F10C03CDE90201CDE90032A0F1FA
:101D80003A01A0F11E03A0F122022E3800F050F912
:101D90008AE7294B2D9A1B689A4245D12FB0BDE89E
:101DA000F08F2A4908930978079307EB4101012036
:101DB0008B86107097E72849097807EB41010120CD
:101DC0001E464B879A461070A5E70A4692FBF0F232
:101DD000254890F800E003F1200112B24FF0000C0A
:101DE000BEF1010F27F8112089F800C07FF47BAF06
:101DF00007EB430380F800C09A8674E71B4896FB04
:101E0000FAF290F800E007EB430112B24FF0000C39
:101E1000BEF1010FA1F8462088F800C07FF47BAF27
:101E200080F800C04A8776E7FFF722FA30190020D1
:101E300040EA000800120020000800204816002098
:101E400060EA0008E0110020B9120020BA12002058
:101E5000BC120020BE120020BF120020C1120020C0
:101E600050EA000882160020BB120020C012002099
:101E7000C8120020B8120020BD120020000000008F
:101E800030B5124D124C2B78226885B003922BB1DD
:101E9000039A23689A4216D105B030BDFFF780FA45
:101EA0004FF4C84000F01CF808B901232B70002340
:101EB00000930848084B40224FF45E7101F010F97E
:101EC000064B1860E4E7FFF7D3F900BFC812002003
:101ED00000080020D0120020311C0008C41200208D
:101EE000F0B5504D504C2B6883B0074601932078D5
:101EF000002380226B218DF80330FFF7D9FA58B107
:101F00002378682B0CBF6920682080226B21207009
:101F1000FFF7CEFA00287CD1012001F039F96826BC
:101F200002E0012001F034F90DF103026B21207869
:101F3000FFF76EFA78B12378682B0CBF6920682010
:101F40000DF103024FF06B010CBF20702670FFF7FC
:101F50005FFA00285DD19DF90330002BE1DB7E00A4
:101F600006F0180632461B212078FFF7A1FA58B177
:101F70002378682B0CBF6920682032461B21207013
:101F8000FFF796FA002844D1FE00012006F018065B
:101F900001F0FEF832461C212078FFF789FA50B193
:101FA0002378682B0CBF6920682032461C212070E2
:101FB000FFF77EFA68BB0120C7F3072701F0E8F8B6
:101FC0003A4619212078FFF773FA50B12378682B2D
:101FD0000CBF692068203A4619212070FFF768FA83
:101FE000B8B9012001F0D4F8012238212078FFF798
:101FF0005FFA50B12378682B0CBF6920682001225A
:1020000038212070FFF754FA18B9012001F0C0F808
:102010000020019A2B689A4201D103B0F0BDFFF76E
:1020200027F900BF00080020100800200000000071
:102030002DE9F0412E4E2F4F336888B004460793A8
:102040000D469046387801AA16233A21FFF778FA10
:1020500058B13B78682B0CBF6920682001AA162371
:102060003A213870FFF76CFAB0BBB8F1000F03D01B
:102070009DF8043088F80030BDB19DF907309DF817
:1020800008209DF905709DF806109DF9090042EAA7
:1020900003229DF80A3041EA072143EA002349421E
:1020A00052425B4229806A80AB80E4B19DF9110005
:1020B0009DF90D709DF80E109DF90F509DF81020A0
:1020C0009DF8123041EA072143EA002342EA052243
:1020D00021806280A3800020079A33689A4204D14D
:1020E00008B0BDE8F0812046F6E7FFF7C1F800BF71
:1020F0000008002010080020000000000000000080
:1021000000B50F4B83B01868019002290CD0032949
:102110000CD001290B4818BF0020019A1B689A4275
:102120000BD103B05DF804FB0748F6E7032A96BF1E
:102130000648002000EBC200EFE7FFF799F800BF68
:102140000008002050EB0008F0EA000800EC00084E
:1021500070B5154C82B02368019302291CD10D463D
:102160000646202383F3118801F04AFB00F018FB98
:1021700030460E4A012104F0FBF829460C4A30464D
:1021800004F0F6F80B4803F0F3FE00F029FB01F031
:102190004FFB002383F31188019A23689A4201D1EF
:1021A00002B070BDFFF764F80008002070EA000874
:1021B000A0EA0008981600200000000000000000BF
:1021C00030B5134D134C2B68134883B0019303F0C3
:1021D00047FE1249104803F073FE226D936B23F4FF
:1021E000002393634FF47A7000F0D2FF20460C492D
:1021F00004F06EF8226D936B43F400239363019A0D
:102200002B689A4201D103B030BDFFF731F800BF0F
:1022100000080020F023002098160020D0EA0008D3
:10222000E0EA0008000000000000000000000000DC
:1022300000B5084B83B01A680192019A1B689A4254
:1022400005D1054803B05DF804EB01F0F1BBFFF7E1
:102250000FF800BF00080020140800200000000054
:1022600000B5084B83B01A680192019A1B689A4224
:1022700005D1054803B05DF804EB01F011BCFEF791
:10228000F7FF00BF00080020140800200000000035
:1022900070B50D4C82B0236801930D1E06460DDD0E
:1022A000284602F05DF818B90C2333604FF0FF3078
:1022B000019A23689A4205D102B070BD034800F02C
:1022C0008FF9EDE7FEF7D4FF0008002020EC0008AE
:1022D00000B5064B83B01A680192019A1B689A42B6
:1022E00002D103B05DF804FBFEF7C2FF0008002036
:1022F00000B5074B83B01A680192019A1B689A4295
:1023000004D103B05DF804EB01F092BBFEF7B0FF1F
:102310000008002000000000000000000000000095
:1023200000B5074B83B01A680192019A1B689A4264
:1023300004D103B05DF804EB01F0B2BBFEF798FFE7
:102340000008002000000000000000000000000065
:1023500000B5074B83B01A680192019A1B689A4234
:1023600004D103B05DF804EB01F04ABCFEF780FF36
:102370000008002000000000000000000000000035
:102380002DE9F0430E4D83B02C6801940446994624
:102390000F46164610304C220021DDF8288009F047
:1023A00087F8C4F80090019A2B68E6609A42C4E965
:1023B000018702D103B0BDE8F083FEF759FF00BFEB
:1023C00000080020000000000000000000000000E5
:1023D000F0B5144E83B001F1100317463268019234
:1023E0000446412218460D46002109F061F839469D
:1023F000402209F0F5F86068FFF77AFF236803B11F
:10240000AB652560A068FFF7A3FF019A33689A4285
:1024100005D1606803B0BDE8F040FFF781BFFEF76B
:1024200027FF00BF0008002000000000000000009F
:10243000F0B51C4E436883B0054693423068019066
:1024400006D20020019A33689A4229D103B0F0BD28
:1024500014460F46A868FFF74BFF22463946286806
:10246000FEF75EFD012385F85130E868FFF770FF45
:102470006C6D84B123681868FFF73AFF23689D608C
:1024800023685868FFF764FF23681868FFF748FF60
:102490006468002CEED1A868FFF742FF0120D1E765
:1024A000FEF7E6FE0008002000000000000000002B
:1024B00000B5064B83B01A680192019A1B689A42D4
:1024C00002D103B05DF804FBFEF7D2FE0008002045
:1024D000024B82B01B680193FEE700BF000800209A
:1024E00000B5044B04481B6883B0019300F078F8F2
:1024F000FEE700BF0008002030EC000800000000EC
:10250000024B82B01B680193FEE700BF0008002069
:10251000F0B5294E294B3268294885B00024039232
:102520009C60D968274A4FF6FF0529400A43DA60C4
:10253000C2682549254D42F08072C2600A6842F0A7
:1025400001020A6010202022D87783F8222000F0B0
:10255000DFFA00F045FA01F073F801F0D9FE01F05E
:1025600047FF01F0C5F800F0FBF9402105F5886050
:1025700000F01EFD0127164BC36180F82070A86192
:1025800000F0A6F884F3118862B6AB69114A9A612B
:102590004FF4C4713A46104B009405F59D6000F06D
:1025A0009FFD039A33680D4981619A4201D105B0BC
:1025B000F0BDFEF75DFE00BF0008002000ED00E06A
:1025C000F0ED00E00003FA05001000E030190020F3
:1025D00000040020D0ED00080125000850EC0008A0
:1025E00000B5054B83B01B680193044672B6FFF734
:1025F000FFFA024BDC62FEE70008002030190020E1
:102600002DE9F047DFF890A0224DDAF8003082B0D3
:10261000019300F055F9AB6993F8232012B1013A08
:1026200083F823205A6ADFF8748001325A6200F07E
:1026300047F9AB6AEA6901334245AB6220D093683F
:10264000013B9360EC69A668D6B94FF02009236876
:10265000E768E660C3F804802368EB6100F0C0F827
:1026600001F0E6F886F311882069B84789F31188EC
:1026700001F0C6F800F094F8EC69A368002BE6D0EE
:10268000019ADAF800309A4202D102B0BDE8F08730
:10269000FEF7EEFD30190020000800204C19002044
:1026A00010B5094C094A236882B0019351685368F8
:1026B0005B1A9842FBD8019A23689A4201D102B072
:1026C00010BDFEF7D5FD00BF00080020001000E09F
:1026D00000B50E4A0E4B116B186883B0019009B912
:1026E000526B4AB1019A1B689A420CD1094803B057
:1026F0005DF804EBFFF774BF019A1B689A4202D1A0
:1027000003B05DF804FBFEF7B3FD00BF30190020F5
:102710000008002060EC000800000000000000003D
:1027200030B50B4C0B4D236B2A6883B001920BB96B
:10273000636B13B10848FFF753FF019A2B6801211F
:102740009A42616301D103B030BDFEF791FD00BF35
:10275000301900200008002090EC00080000000064
:1027600030B50C4C0C4D236B2A6883B0019253B9E1
:10277000636B002B07DD019A2B6800219A4261638D
:1027800005D103B030BD0548FFF72AFFF3E7FEF798
:102790006FFD00BF3019002000080020B0EC0008D9
:1027A00030B50B4C0B4D236B2A6883B0002B019284
:1027B00001DD636B13B10848FFF712FF019A2B6824
:1027C00001219A42616301D103B030BDFEF750FD93
:1027D0003019002000080020A0EC000800000000D4
:1027E00030B50C4C0C4D236B2A6883B0002B019242
:1027F0000ADD636B002B07DD019A2B6800219A42EA
:10280000616305D103B030BD0448FFF7E9FEF3E78B
:10281000FEF72EFD3019002000080020C0EC000853
:1028200030B50F4D83B02B680193202383F31188BB
:102830000C4C236B002B01DB626B1AB10A48FFF7CB
:10284000CFFE236B01332363002383F31188019AA6
:102850002B689A4201D103B030BDFEF709FD00BFDD
:10286000000800203019002070EC00080000000073
:1028700030B50F4D83B02B680193202383F311886B
:102880000C4C236B002B01DD626B1AB10A48FFF779
:10289000A7FE236B013B2363002383F31188019A76
:1028A0002B689A4201D103B030BDFEF7E1FC00BFB6
:1028B000000800203019002080EC00080000000013
:1028C00000B50F4A0F4B116B186883B000290190B7
:1028D00009DB526B002A06DD019A1B689A420CD173
:1028E00003B05DF804FB019A1B689A4205D10648C3
:1028F00003B05DF804EBFFF773BEFEF7B9FC00BF51
:102900003019002000080020D0EC00080000000072
:1029100000B50E4A0E4B116B186883B0019049B98F
:10292000526B002A06DD019A1B689A420CD103B053
:102930005DF804FB019A1B689A4205D1054803B073
:102940005DF804EBFFF74CBEFEF792FC3019002057
:1029500000080020E0EC000800000000000000007B
:1029600010B5084A084B116882B0402401910199C2
:10297000126818199142C3E90E4001D102B010BD8E
:10298000FEF776FC0008002030190020000000004F
:1029900010B51149114B0A6882B00192DA6B9C6A3A
:1029A0001460DA6B9C695460DA6B846A9460DA6B49
:1029B00090F820001073DA6B03F5886010328242C1
:1029C00028BF03F14002DA63019A0B689A4201D1F1
:1029D00002B010BDFEF74CFC0008002030190020AA
:1029E00010B50B4A0B4B116882B04FF0FF340191C8
:1029F00000219962019811685C6203F11C0288420F
:102A0000C3E9072201D102B010BDFEF731FC00BFBF
:102A10000008002030190020000000000000000025
:102A20002DE9F041184E82B00546306801900C4601
:102A300017469846FFF744FF05B3FFB1F4B1C5E967
:102A400003781248C3699A68944204D91B68A41A8F
:102A50009A68A242FAD32B605A686A6015605D607A
:102A6000AC609968019D3268091B95424FF0FF34B4
:102A70009960446206D102B0BDE8F0810448FFF7D6
:102A8000AFFDDCE7FEF7F4FB000800203019002062
:102A9000F0EC000800000000000000000000000052
:102AA00030B5164D83B004462B680193FFF708FF3D
:102AB000ECB1E368BBB12268A06893680199034454
:102AC0009360D4E900231A6020682B680C4A65687B
:102AD000456099424FF000054FF0FF30E5605062CD
:102AE00009D103B030BD0748FFF77AFDE3E7054899
:102AF000FFF776FDDDE7FEF7BBFB00BF0008002017
:102B00003019002000ED0008000000000000000067
:102B100000B50A4A0A4B11681B6083B0002001917E
:102B2000019912685B609142C3E90433986002D155
:102B300003B05DF804FBFEF79BFB00BF000800201C
:102B4000301900200000000000000000000000001C
:102B500030B5164D83B004462B680193FFF7B0FEE5
:102B6000ECB194F82030B3B10F2B14D00022A1683F
:102B70000F4B84F820201B689A688A42FBD223609E
:102B80005A686260146001992A685C60914220462C
:102B900009D103B030BD0748FFF722FDE6E705483D
:102BA000FFF71EFDDDE7FEF763FB00BF0008002016
:102BB0003019002010ED00080000000000000000A7
:102BC00070B5204D82B02B6801930446202383F317
:102BD000118800F015FEFFF7E3FD94F82030072B75
:102BE00011D8DFE803F0161010230A04100AA66AB1
:102BF000FFF766FEB3680133B360D4E900231A60BF
:102C0000D4E900325A604FF0FF33A3622046FFF749
:102C10009FFFFFF7E5FD00F00BFE002383F3118813
:102C2000019A2B689A420BD102B070BDA36A0022B0
:102C30001A604FF0FF33A3622046FFF789FFE8E7F1
:102C4000FEF716FB00080020000000000000000056
:102C5000F0B5194E194C336883B007460193FFF75E
:102C600057FEA569236885F82070142285F8232073
:102C70001A68226001215460284683F82010A3615D
:102C8000FFF786FE2946A06900F06AFDEFF309838D
:102C9000EA69643B9A4202D90948FFF7A1FC019A0C
:102CA00033689A4206D1A069294603B0BDE8F040D6
:102CB000FDF7FEBAFEF7DCFA00080020301900200C
:102CC00020ED0008000000000000000000000000EF
:102CD000F0B5154C87B0236805930E460746FFF7FD
:102CE00017FE731C18D0114D114AAB693146684666
:102CF000FFF796FE3846FFF7ABFFFFF7E1FD039BBA
:102D000013B16846FFF7CCFE059A2368A9699A4279
:102D1000886A06D107B0F0BD3846FFF799FF034D2A
:102D2000F2E7FEF7A5FA00BF0008002030190020E6
:102D3000C12B00080000000000000000000000009F
:102D4000F0B51E4D1E4E2B6883B0044601930F460E
:102D5000FFF7DEFDB069A7628368A2689A421DD9B9
:102D6000FFF7F6FE0123074684F82030B461FFF731
:102D70000FFE3946204600F0F3FCEFF30983FA69B1
:102D8000643B9A4214D8019A2B689A4214D139466E
:102D9000204603B0BDE8F040FDF78ABA019A2B68DF
:102DA0009A4209D1204603B0BDE8F040FFF7D0BEFB
:102DB0000448FFF715FCE6E7FEF75AFA0008002082
:102DC0003019002020ED0008000000000000000085
:102DD00010B50E490E4B8A69086892F823101C68DA
:102DE0008068926882B0019449B9904234BF002053
:102DF0000120019A1B689A4206D102B010BD904290
:102E000094BF00200120F4E7FEF732FA30190020C9
:102E1000000800200000000000000000000000008A
:102E200070B5184C184E2368A5691A682260546062
:102E3000012283F8202082B01422316885F82320F3
:102E40002846A3610191FFF783FE2846FFF7A0FD06
:102E50002946A06900F084FCEFF30983EA69643B2A
:102E60009A4202D90948FFF7BBFB019A33689A429C
:102E700006D1A069294602B0BDE87040FDF718BA36
:102E8000FEF7F6F9301900200008002020ED0008B8
:102E900070B51C4D1C4E2A68AC6913682B6001216B
:102EA00082B05D60002082F82010AA613268A168BB
:102EB00084F82000019200E01B689A688A42FBD8DF
:102EC00023605A686260204614605C60FFF760FD12
:102ED0002146A86900F044FCEFF30983E269643BF2
:102EE0009A4202D90948FFF77BFB019A33689A425C
:102EF00006D1A869214602B0BDE87040FDF7D8B9F7
:102F0000FEF7B6F9301900200008002020ED000877
:102F100010B50F4C82B023680193FFF7F9FCFFF75F
:102F2000CFFC0C4B1A689B6992689B689A42019A85
:102F3000236803D89A4208D102B010BD9A4204D146
:102F400002B0BDE81040FFF7A3BFFEF791F900BF44
:102F500000080020301900200000000000000000E0
:102F600000B50E4A0E4B9269196892F8232083B07F
:102F7000019142B1019A1B689A420DD103B05DF8EC
:102F800004EBFFF785BF019A1B689A4204D103B096
:102F90005DF804EBFFF744BFFEF76AF93019002033
:102FA00000080020000000000000000000000000F9
:102FB000F0B51A4A1A4D02610446816083B01423A9
:102FC00050692E68616484F82330022700230121B0
:102FD000278484F82210C4E90F3304F16801A36147
:102FE000019604F12C07636204F1500604F13003EA
:102FF00060610461C4E90C33E1613046E762546109
:1030000000F0B6FA304600F0D3FA019A2B689A42E3
:1030100002D1204603B0F0BDFEF72AF93019002096
:103020000008002000000000000000000000000078
:1030300010B5094B82B01C680194884203D200F895
:10304000012B8142FBD1019A1B689A4201D102B047
:1030500010BDFEF70DF900BF0008002000000000C1
:103060002DE9F043184E83B0346801940546DDF82D
:1030700028900C4617469846FFF722FC15B1B4F588
:10308000BC7F19D21148FFF7ABFAA4F164012944BF
:10309000E960C1F84080EB68019AC3F84490336856
:1030A000E9680B4808669A420CD13946284603B0B5
:1030B000BDE8F043FFF77CBF7F2FE3D8B8F1000FE6
:1030C000E3D1DFE7FEF7D4F80008002070ED000838
:1030D000C90200080000000000000000000000001D
:1030E0002DE9F04FDFF8A48087B0D8F80040DDF874
:1030F0004090059407468A46934600F168060446C8
:10310000FF2504F8015BA642FBD107EB0A05A542A7
:1031100004D9552604F8016BA542FBD10393202264
:1031200082F3118800F03CFBFFF7FAFA039BCDF81D
:1031300000905A4651463846FFF792FF0021044658
:10314000FFF7FEFDFFF70CFB00F042FB0D4B1A688A
:103150009A4204D0996993688A689A420BD30023F3
:1031600083F31188059AD8F800309A42204606D198
:1031700007B0BDE8F08F0448FFF732FAEFE7FEF73B
:1031800077F800BF3019002030ED0008000800205B
:1031900030B5184C83B0236801930546202383F390
:1031A000118800F0FDFAFFF7BBFA15B91248FFF7D6
:1031B00017FA29460820FFF78BFDFFF7D1FA00F038
:1031C00007FB0E4B1A689A4204D0996993688A6883
:1031D0009A4208D3002383F31188019A23689A4204
:1031E00005D103B030BD0648FFF7FAF9F2E7FEF764
:1031F0003FF800BF0008002040ED00083019002013
:1032000030ED000800000000000000000000000099
:10321000F0B51C4F83B03B68019304460E46202353
:1032200083F31188184D00F0BBFAFFF779FAA96A09
:10323000331B0C1B9C4219D3FFF792FA00F0C8FA1B
:103240002B68AB4204D0AA699B6892689A4209D362
:10325000002383F31188019A3B689A4230460FD1CC
:1032600003B0F0BD0948FFF7BBF9F1E7741A02D1CA
:103270000748FFF7B5F921460820FFF729FDDBE7EE
:10328000FDF7F6FF000800203019002030ED00089F
:1032900040ED0008000000000000000000000000F9
:1032A00070B5164B164E9C693268E36AA06282B014
:1032B00004F12C05AB42019207D01A68E26218466D
:1032C000FFF746FCE36AAB42F7D194F821309B0745
:1032D00005D1D4E904231A61D4E904325A610F20DC
:1032E000FFF7B6FC019A33689A4205D1054802B04F
:1032F000BDE87040FFF774B9FDF7BAFF3019002040
:103300000008002080ED0008000000000000000020
:1033100030B50C4C83B0236801930546202383F31A
:10332000118800F03DFAFFF7FBF9019A23689A42F1
:1033300005D1284603B0BDE83040FFF7B1BFFDF727
:1033400097FF00BF00080020000000000000000000
:10335000F0B50D4D0D4E03682A68B76983B0044679
:10336000019213B10A48FFF73BF927600320BC62C2
:10337000FFF76EFC019A2B68B1699A42886A01D105
:1033800003B0F0BDFDF774FF0008002030190020E5
:1033900090ED0008000000000000000000000000A8
:1033A000F0B5124D0368124A83B0044628680190B4
:1033B0000E46976913B10F48FFF712F966B12760FF
:1033C000019A2B68BC629A420ED13146032003B0A9
:1033D000BDE8F040FFF77CBC019A2B689A424FF0A1
:1033E000FF3001D103B0F0BDFDF742FF000800201F
:1033F00030190020A0ED00080000000000000000CF
:10340000F0B5124D04682B6883B00193B4B194F801
:103410002030032B06460F460CD100233360019A5F
:103420002B68A7629A420FD1204603B0BDE8F04056
:10343000FFF78EBB0648FFF7D3F8EEE7019A2B683B
:103440009A4201D103B0F0BDFDF712FF0008002041
:10345000C0ED0008000000000000000000000000B7
:1034600030B5104A83B01368019381B10E4B019DB2
:103470009B69186044685C602360126843609542F1
:103480000DD1042003B0BDE83040FFF721BC019905
:10349000136899424FF0FF3001D103B030BDFDF702
:1034A000E7FE00BF000800203019002000000000E7
:1034B00070B5124D04682B6882B0A042019315D0FC
:1034C00023680360586094F82030042B0E4602D025
:1034D0000B48FFF785F8019A2B68A6629A420BD138
:1034E000204602B0BDE87040FFF732BB019A2B685E
:1034F0009A4201D102B070BDFDF7BAFE000800206B
:1035000050ED000800000000000000000000000076
:103510002DE9F041DFF850800468D8F8003082B01F
:10352000A042019313D00F4F05460E4623682B602F
:103530005D6094F82030042B02D03846FFF750F835
:10354000A6622046FFF704FB2C68A542EED1019A43
:10355000D8F800309A4202D102B0BDE8F081FDF700
:1035600087FE00BF50ED00080008002000000000AA
:1035700030B50B4B83B01A6801924FF0FF320260F6
:1035800001991A680024002300259142C0E90445EE
:10359000C0E90133C36001D103B030BDFDF768FE5F
:1035A00000080020000000000000000000000000F3
:1035B00000B5084B084A196883B001915168019A17
:1035C0001B6881609A4202D103B05DF804FBFDF7ED
:1035D0004FFE00BF00080020001000E000000000C7
:1035E000F0B51449144B0A68846883B00192134AF9
:1035F0005B68D2F8A864C2681B1BD0E9044501329D
:103600009B1BC26042688360E61845F10007934245
:10361000C0E9046709D80268934238BF0360019A81
:103620000B689A4203D103B0F0BD4360F7E7FDF7A2
:103630001FFE00BF00080020001000E0301900202D
:1036400030B5114D114C2B6889B04FF0FF31079305
:10365000002300226846C4F8A834CDE9013303935F
:103660000023CDE904230091FFF7A2FF6846FFF78E
:10367000B7FF079A2B680299C4F8A8149A4201D19F
:1036800009B030BDFDF7F4FD00080020301900201E
:103690002DE97048134E144B326883B001925B6879
:1036A0008B60D0E902411B1BD0E90445426814EB52
:1036B000030B45F1000C01319342C0E90231C0E92E
:1036C00004BC0AD80268934238BF0360019A336889
:1036D0009A4204D103B0BDE870884360F6E7FDF775
:1036E000C7FD00BF00080020001000E0000000003F
:1036F00030B50D4D0D4C2B6883B004F597600193E8
:103700000023C4F8B034C4F8B434FFF731FF019A91
:103710002B689A4206D104F59A6003B0BDE83040A8
:10372000FFF726BFFDF7A4FD000800203019002098
:1037300000B50949094A0B6883B001930198D2F892
:10374000B034096801338842C2F8B03402D103B002
:103750005DF804FBFDF78CFD000800203019002007
:1037600070B50D4C0D4A236882B00193019DD2F8CB
:10377000B43424680133A542C2F8B43409D10E46EA
:1037800000F1500106F1500002B0BDE87040FFF7B3
:103790007FBFFDF76DFD00BF00080020301900203D
:1037A00000B5084B83B01A680192019A1B689A42CF
:1037B00005D1054803B05DF804EBFFF7F9BEFDF74E
:1037C00057FD00BF00080020E81D00200000000099
:1037D00000B5084B83B01A680192019A1B689A429F
:1037E00005D1054803B05DF804EBFFF7F9BEFDF71E
:1037F0003FFD00BF00080020E81D00200000000081
:1038000000B5084B83B01A680192019A1B689A426E
:1038100005D1054803B05DF804EBFFF7C9BEFDF71D
:1038200027FD00BF00080020001E0020000000004F
:1038300000B5084B83B01A680192019A1B689A423E
:1038400005D1054803B05DF804EBFFF7C9BEFDF7ED
:103850000FFD00BF00080020001E00200000000037
:1038600030B50B4D83B02B680193044650B12460F2
:1038700001992A68646000239142A360236105D105
:1038800003B030BD0348FEF7ABFEF0E7FDF7F0FCF8
:103890000008002000EE000800000000000000000A
:1038A000F0B55D4E5D4B32689D6983B00446019270
:1038B000FFF72EF8002C00F08480A0682369002810
:1038C00043D0002B40F39780854276D0AA68836866
:1038D0009A4208D990F820308260062B40D0072BFE
:1038E00073D0002B5DD02746234603E09968AA6871
:1038F000914233D31B689C42F8D12F607B686B6088
:1039000006201D607D60AC62FFF7A2F9A368AB42A0
:1039100002D04348FEF764FE2B6CA34202D040481D
:10392000FEF75EFE2369012B05D1019A33689A42A6
:103930006FD103B0F0BD019A33689A4269D138481B
:1039400003B0BDE8F040FEF74BBE002B58D1013369
:10395000A56023612B6CE3602C64E6E71F46CCE78F
:10396000D0E900231A60D0E900325A60876A3B46EA
:1039700003E099688268914247D31B689F42F8D15F
:1039800007607B68436018607860836AAA689868FB
:1039900083689342A7D290F820308260062B9ED194
:1039A000DEE7D0E90023012180F820101A60D0E979
:1039B00000325A60FFF7CCF895E7236901332361A1
:1039C000B3E71748FEF70CFE77E7D0E900231A604B
:1039D000D0E900325A60876A3B4603E09968826802
:1039E000914214D31B689F42F8D107607B68436003
:1039F0001860786077E70A48FEF7F2FDA06863E791
:103A00000748FEF7EDFD2369A1E71F46B8E71F460B
:103A1000EBE7FDF72DFC00BF000800203019002067
:103A200010EE000800000000000000000000000090
:103A300030B5154C83B0236801930546202383F3EA
:103A40001188FFF7ADFEFEF76BFE2846FFF728FF53
:103A5000FEF786FEFFF7BCFE0C4B1A689A4204D0B4
:103A6000996993688A689A4208D3002383F311887E
:103A7000019A23689A4205D103B030BD0448FEF78D
:103A8000AFFDF2E7FDF7F4FB00080020301900203D
:103A9000F0ED000800000000000000000000000041
:103AA0002DE9F043DFF800813C4FD8F80030BE69C3
:103AB00083B005460193002864D0202383F3118846
:103AC000FFF76EFEFEF72CFE336C002B5ED09B687A
:103AD000B34202D03248FEF783FD2B69002B49DD4B
:103AE000013B2B615BBB336CAB4202D02C48FEF731
:103AF00077FDEB683364FEF70BFF2B689D423ED0E9
:103B0000D6E910495CB1FEF703FF23689C4203D05D
:103B10009B68994538BF9946E468002CF3D1C6F8F4
:103B200008902B6801222A611A682A605560AB60F0
:103B30001A6CEA6018461D640021FFF701F9FEF7D0
:103B40000FFEFFF745FE3B68BB4204D0BA699B6895
:103B500092689A420AD3002383F31188019AD8F815
:103B600000309A4217D103B0BDE8F0830D48FEF74C
:103B700037FDF0E70A48FEF733FD2B69B0E7002375
:103B8000AB60DCE70648FEF72BFD96E70448FEF73E
:103B900027FD336C9BE7FDF76BFB00BF301900205E
:103BA00020EE0008F0ED00080008002000000000F2
:103BB00070B5114E82B0044633680193FEF780FE63
:103BC0009CB12068A0420AD06FF001050368236011
:103BD0005C60FEF7BDFF85622068A042F6D1019AC5
:103BE00033689A4205D102B070BD0448FEF7F8FC74
:103BF000E7E7FDF73DFB00BF0008002040EE0008AE
:103C000030B5164C83B0236801930546202383F317
:103C10001188FFF7C5FDFEF783FD2846FFF7C8FFB3
:103C2000FFF776F9FEF79CFDFFF7D2FD0C4B1A6803
:103C30009A4204D0996993688A689A4208D300230B
:103C400083F31188019A23689A4205D103B030BDED
:103C50000448FEF7C5FCF2E7FDF70AFB0008002068
:103C60003019002030EE00080000000000000000C5
:103C70002DE9F0431D4F83B03C68019491460C46FA
:103C80009846064660B359B3202383F31188FFF7A3
:103C900087FD174DFEF744FD336823603460AB6940
:103CA00063600023C4E90338C4F80890FEF758FDA8
:103CB000FFF78EFD2B68AB4204D0AA699B6892681F
:103CC0009A4209D3002383F31188019A3B689A42F0
:103CD0000AD103B0BDE8F0830648FEF781FCF1E7A6
:103CE0000548FEF77DFCCFE7FDF7C2FA000800208B
:103CF0003019002060EE000870EE0008000000009F
:103D000070B5184E82B00446336801930D46FEF735
:103D1000D7FD0CB3E16B94F8203029430A2BE16303
:103D200016D00B2B05D0019A33689A4218D102B0F5
:103D300070BDA36A8B43F6D1019A336800219A4281
:103D4000A1620DD1204602B0BDE87040FEF700BF71
:103D5000A36A1942F0D1E6E70348FEF741FCD9E730
:103D6000FDF786FA00080020B0EE00080000000011
:103D7000F0B5134F83B006463B6801930D46FEF73E
:103D80009FFDB6B13468A6420DD0E3682B43E360D3
:103D900015B12269134203D0D4E90101FFF7B0FF46
:103DA0002468A642F1D1019A3B689A4205D103B03A
:103DB000F0BD0448FEF714FCE4E7FDF759FA00BF34
:103DC0000008002090EE0008000000000000000045
:103DD00070B50C4CC16082B0266801960A44006040
:103DE000019E02612268069D4060C0E9051196426D
:103DF0004FF00001C3618160056201D102B070BD66
:103E0000FDF736FA00080020000000000000000066
:103E100030B50D4D83B02B6801930446FEF750FD7D
:103E200001992A68E368A36100209142A060636160
:103E300007D120466FF0010103B0BDE83040FFF725
:103E400067BBFDF715FA00BF000800200000000066
:103E500070B5164D82B004462B6801930E46FEF7EE
:103E60002FFDFEF72DFDD4E905239A42A36816D055
:103E70000133511CA36061611670D4E904329A4287
:103E80000AD220460021FFF713FB0020019A2B687D
:103E90009A4209D102B070BDE3686361F1E7002B7B
:103EA000E6D06FF00300F1E7FDF7E2F9000800202B
:103EB000F0B5234F83B03B68019304460E462023A0
:103EC00083F31188FFF76CFCFEF72AFCE36943B12A
:103ED0002046984705E031462046FFF7C1FA051E07
:103EE00010DBFEF7EDFCA368002BF4D0A16920697C
:103EF0004A1C013B8242A360A26128BFE3680D789F
:103F000028BFA361FEF72CFCFFF762FC0D4B1A687B
:103F10009A4204D0996993688A689A4209D3002327
:103F200083F31188019A3B689A42284605D103B071
:103F3000F0BD0548FEF754FBF1E7FDF799F900BF26
:103F40000008002030190020C0EE0008000000002A
:103F50002DE9F04FDFF8F490044685B0D9F8000061
:103F600003908A461D46D4F81C809346002A60D0F0
:103F7000202383F311880193FFF712FCFEF7D0FB97
:103F80002F4E0027B8F1000F07D02046C04704E0AD
:103F900029462046FFF764FA60BBFEF791FCA36850
:103FA000002BF5D0A269013B511CA161A3601378DD
:103FB0000AF8013B2369A2699A4224BFE368A3611E
:103FC000FEF7CEFBFFF704FC3368B34204D0B269BE
:103FD0009B6892689A4228D3002383F311880137A3
:103FE000BB4519D0019B83F31188FFF7D9FBFEF77E
:103FF00097FBC7E7FEF7B4FBFFF7EAFB3368B34272
:1040000007D0B2699B6892689A4202D20D48FEF7C7
:10401000E7FA002383F31188039AD9F800309A4213
:1040200038460AD105B0BDE8F08F0648FEF7D8FA49
:10403000D2E70548FEF7D4FA9AE7FDF719F900BF71
:1040400030190020C0EE0008D0EE00080008002063
:1040500070B50B4D82602E68C16082B0C0E900006F
:1040600001960A44019E02612A68069C9642C0E9B4
:104070000511C0E9073401D102B070BDFDF7F8F8B1
:104080000008002000000000000000000000000008
:1040900030B50D4D83B004462B680193FEF710FC3C
:1040A000D4E9032301982968A2619B1A88426261BE
:1040B000A36007D120466FF0010103B0BDE8304096
:1040C000FFF726BAFDF7D4F8000800200000000032
:1040D0002DE9F0412E4F82B03B680193044688469B
:1040E0001646202383F31188FFF75AFBFEF718FBCF
:1040F00005E031462046FFF7B3F9051E2DDBFEF73C
:10410000DFFBA368002BF4D06269013B511C6161A5
:10411000A36082F80080D4E904329A4224BFE368A5
:104120006361E3690BB120469847FEF719FBFFF77F
:104130004FFB184B1A689A4204D0996993688A68B1
:104140009A421ED3002585F31188019A3B689A4252
:1041500028461AD102B0BDE8F081FEF701FBFFF757
:1041600037FB0C4B1A689A4207D0996993688A68A2
:104170009A4202D20848FEF733FA002383F31188EB
:10418000E3E70548FEF72CFADCE7FDF771F800BF1E
:104190000008002030190020C0EE000800000000D8
:1041A00070B5154E82B0044633680193FEF788FB64
:1041B000FEF786FBD4E905329342A36815D0206947
:1041C000511C0133A360A161814215780AD22046B7
:1041D0000021FFF76DF92846019A33689A4209D108
:1041E00002B070BDE368A361F1E7002BE7D06FF088
:1041F0000200F1E7FDF73CF8000800200000000095
:104200002DE9F04F04463B48D4F81C90006885B077
:104210000D46039001931646002A61D04FF0200A04
:104220008AF31188FFF7BCFAFEF77AFA4FF000081C
:10423000314FC346FEF744FBA368002B32D06269BE
:10424000013B511C6161A3602B781370D4E90432E7
:104250009A4224BFE36863610135B9F1000F01D0D0
:104260002046C847FEF77CFAFFF7B2FA3B68BB422C
:1042700007D0BA699B6892689A4202D21F48FEF73B
:10428000AFF98BF31188013E08F101081FD08AF3C2
:104290001188FFF785FAFEF743FAFEF711FBA368D2
:1042A000002BCCD101992046FFF7DAF80028C1D0C5
:1042B000FEF756FAFFF78CFA3B68BB4204D0BA69A6
:1042C0009B6892689A420FD3002383F31188094BAD
:1042D000039A1B689A4240460AD105B0BDE8F08FA8
:1042E0000748FEF77DF999E70448FEF779F9EBE70F
:1042F000FCF7BEFF0008002030190020C0EE0008C7
:10430000E0EE0008000000000000000000000000D7
:1043100030B50B490B4A0B680B4D0C4C83B022F0A7
:104320000702019301980A4B09682A6023F00703EA
:104330008842236001D103B030BDFCF799FF00BF74
:104340000008002017280020A41F0020A01F002024
:10435000000002200000000000000000000000003B
:1043600070B51C4E82B0336801930446202383F35A
:104370001188FFF715FAFEF7D3F9FEF7A1FA164AEE
:10438000164B15681B68E01D20F007005B1B984268
:104390009ABF401910600025FEF7E2F9FFF718FAFE
:1043A0000F4B1A689A4204D0996993688A689A42B6
:1043B00009D3002383F31188019A33689A4228466F
:1043C00005D102B070BD0748FEF70AF9F1E7FCF726
:1043D0004FFF00BF00080020A41F0020A01F0020E6
:1043E0003019002000EF000800000000000000006D
:1043F00000B50B4B0B481A6883B0019201991A68FB
:10440000094B036091424FF00003C0E9023305D12C
:10441000103003B05DF804EBFFF722BAFCF728FF79
:1044200000080020A81F00206143000800000000D1
:1044300080B50D4A0D4982B000AF13687B604B68B0
:1044400023F001034B60EFF30983683383F309889A
:10445000002383F3118879681368994202D10837E1
:10446000BD4680BDFCF704FF0008002030EF00E0EF
:10447000B0B5194C82B000AF23687B60202383F372
:104480001188164B5B6813F4006308D183F311881D
:104490007A6823689A421DD10837BD46B0BDF1EE57
:1044A000103AEFF309854FF080720D4B45F84C2C14
:1044B000DB6845F8083CA5F1680383F30988FEF73B
:1044C00087FC18B1074B45F8503CE1E7064B45F82F
:1044D000503CDDE7FCF7CCFE0008002000ED00E0DA
:1044E00030EF00E0E1020008F402000800000000E4
:1044F00010B5184C82B02368019302F0A9FE16484B
:1045000004F0C6F900F0D4F800F00AF900F050F910
:1045100000F07EF900F0ACF900F082FA00F008FC3F
:1045200000F036FC01F03CFA01F042F901F050FED7
:1045300001F096FE01F084FC06F0EAFC019A236883
:104540009A4204D102B0BDE8104001F071BEFCF700
:104550008FFE00BF0008002090F50008000000005A
:10456000F0B51A4D83B02B68019391420E46144664
:10457000074619D38B1A1F2B16D806F01F03581C99
:104580006209012376098340B24203F1FF3304F04C
:104590001F0457F822000BD31840E040019A2B6803
:1045A0009A4210D103B0F0BD0948FEF719F8E4E7CC
:1045B00057F82610C4F120020B4020FA04F403FA45
:1045C00002F02043EAE7FCF753FE00BF000800209A
:1045D00010EF0008000000000000000000000000D4
:1045E000F0B51D4E83B033680193054670B37E224B
:1045F0007F212846FFF7B4FF80B1012806D00020B4
:10460000019A33689A4225D103B0F0BD2846302282
:104610004521FFF7A5FF01308002F1E73E22492145
:104620002846FFF79DFF2F22044631212846FFF739
:1046300097FF5022074653212846FFF791FF013488
:1046400002370938BC4004FA00F0D9E70348FDF707
:10465000C7FFCCE7FCF70CFE0008002030EF000895
:10466000F0B5104D83B02B680193044698B194F8CF
:10467000D63094F8D770019994F8D4602A6894F8E9
:10468000D5001B0403EB07633344914203EB002086
:1046900005D103B0F0BD0448FDF7A2FFE7E7FCF742
:1046A000E7FD00BF0008002050EF000800000000F8
:1046B00000B5074B83B01A680192019A1B689A42B1
:1046C00004D103B05DF804EB02F082BEFCF7D0FD2C
:1046D00000080020000000000000000000000000B2
:1046E00000B50C4B83B01A68019201220270019947
:1046F0001A6800239142C0E90133C0E903334361E2
:1047000005D1183003B05DF804EBFFF7A9B8FCF74A
:10471000AFFD00BF00080020000000000000000006
:1047200000B5074B83B01A680192019A1B689A4240
:1047300004D103B05DF804EB03F0F2BBFCF798FD85
:104740000008002000000000000000000000000041
:1047500030B5134B83B01A68019201220270019C9C
:104760001968002200F1180300F11C054260836102
:1047700000F1200200F12403C561026200F1280566
:1047800000F1080243628C4200F110038562C0E927
:104790000222C0E9043301D103B030BDFCF768FD4B
:1047A00000080020000000000000000000000000E1
:1047B00000B5074B83B01A680192019A1B689A42B0
:1047C00004D103B05DF804EB04F042B8FCF750FDEF
:1047D00000080020000000000000000000000000B1
:1047E00000B50A4B83B01A68019201220270019948
:1047F0001A6800239142C0E9043305D1183003B090
:104800005DF804EBFFF72CB8FCF732FD0008002040
:1048100000B5074B83B01A680192019A1B689A424F
:1048200004D103B05DF804EB03F09ABBFCF720FD64
:104830000008002000000000000000000000000050
:1048400000B5084B83B01A68019201220270019AE8
:104850001B6800219A42416002D103B05DF804FB5D
:10486000FCF706FD0008002000000000000000002A
:1048700000B5074B83B01A680192019A1B689A42EF
:1048800004D103B05DF804EB05F01ABEFCF7F0FCB0
:1048900000080020000000000000000000000000F0
:1048A00000B5084B83B01A68019201220270019A88
:1048B0001B6800219A42416002D103B05DF804FBFD
:1048C000FCF7D6FC000800200000000000000000FB
:1048D00070B51E4D82B02B6801930E46044670B32E
:1048E00069B3202383F31188FEF75AFFFDF718FF01
:1048F0002378013B012B02D91548FDF771FE2046B4
:10490000666005F00DFE02232370FDF729FFFEF718
:104910005FFF104B1A689A4204D0996993688A68BD
:104920009A4208D3002383F31188019A2B689A4294
:1049300009D102B070BD0848FDF752FEF2E7044805
:10494000FDF74EFECDE7FCF793FC00BF000800200A
:1049500080EF00083019002070EF00080000000010
:1049600070B5114D82B004462B6801930E46FDF7D9
:10497000A7FF94B12378022B02D00C48FDF730FE3C
:1049800003232370019A2B689A420AD131462046AC
:1049900002B0BDE8704005F043BE0448FDF720FEBC
:1049A000E8E7FCF765FC00BF0008002090EF000876
:1049B00070B5164C82B02368019305460E4620233D
:1049C00083F31188FEF7ECFEFDF7AAFE3146284678
:1049D000FFF7C6FFFDF7C4FEFEF7FAFE0C4B1A68A0
:1049E0009A4204D0996993688A689A4208D300234E
:1049F00083F31188019A23689A4205D102B070BDF1
:104A00000448FDF7EDFDF2E7FCF732FC000800205A
:104A10003019002070EF00080000000000000000C6
:104A200000B5074B83B01A680192019A1B689A423D
:104A300004D103B05DF804EB04F022BAFCF718FCD3
:104A4000000800200000000000000000000000003E
:104A500000B50A4B83B01A68019201220270019AD4
:104A60001B6800219A42416005D10C3003B05DF80B
:104A700004EBFEF7F5BEFCF7FBFB00BF00080020CF
:104A800070B51F4D82B02B6801930E46044680B36B
:104A900079B323785A1E012A04D9052B02D019486C
:104AA000FDF79EFD202383F31188FEF779FEFDF7C5
:104AB00037FE2046666004F00BFA02232370FDF7F0
:104AC0004FFEFEF785FE104B1A689A4204D0996992
:104AD00093688A689A4208D3002383F31188019A65
:104AE0002B689A4209D102B070BD0848FDF778FDE5
:104AF000F2E70448FDF774FDCBE7FCF7B9FB00BF14
:104B000000080020C0EF000830190020B0EF0008B6
:104B100030B51D4D83B02B680193044670B32378E4
:104B20005A1E012A04D9052B02D01848FDF758FD5A
:104B3000202383F31188FEF733FEFDF7F1FD2046B5
:104B400004F006FB01232370FDF70AFEFEF740FE8A
:104B50000F4B1A689A4204D0996993688A689A42FE
:104B600008D3002383F31188019A2B689A4209D154
:104B700003B030BD0748FDF733FDF2E70348FDF70A
:104B80002FFDCCE7FCF774FB00080020D0EF0008F5
:104B900030190020B0EF0008000000000000000005
:104BA00030B5094D83B02B680193044630B1019AAA
:104BB0002B68A0689A4205D103B030BD0348FDF7C9
:104BC0000FFDF4E7FCF754FB00080020E0EF0008BD
:104BD0002DE9F04F304E87B034680594DDF840B0D1
:104BE0000D4690461F46DDE9119A044608B100299A
:104BF0003DD12A48FDF7F4FC2378022B02D0274848
:104C0000FDF7EEFC202383F31188FEF7C9FDFDF7C5
:104C100087FD4FF0000C0320C4F808C04246294627
:104C200020703B462046CDE9019ACDF800B004F053
:104C3000E7FA431C0CBF0523022323700546FDF74A
:104C40008FFDFEF7C5FD164B1A689A4204D099698C
:104C500093688A689A4218D3002383F31188059ACF
:104C600033689A42284614D107B0BDE8F08F002B74
:104C7000BFD0002ABDD0B9F1000F02D0BBF1000FA8
:104C8000B7D0BAF1000FB7D1B3E70648FDF7A8FCDB
:104C9000E2E7FCF7EDFA00BF00080020F0EF0008A3
:104CA00030190020B0EF00080000000000000000F4
:104CB00030B50B4C83B023680193054650B1019A7F
:104CC00023689A420AD105F10C0003B0BDE83040D8
:104CD000FEF7AEBE0348FDF783FCF0E7FCF7C8FA29
:104CE0000008002010F00008000000000000000094
:104CF00030B50B4C83B023680193054650B1019A3F
:104D000023689A420AD105F10C0003B0BDE8304097
:104D1000FEF7C6BE0348FDF763FCF0E7FCF7A8FA10
:104D20000008002020F00008000000000000000043
:104D300000B5074B83B01A680192019A1B689A422A
:104D400004D103B05DF804EB05F0DABAFCF790FA91
:104D5000000800200000000000000000000000002B
:104D600000B5084B83B01A68019201220270019AC3
:104D70001B6800219A42416002D103B05DF804FB38
:104D8000FCF776FA00080020000000000000000098
:104D900000B5074B83B01A680192019A1B689A42CA
:104DA00004D103B05DF804EB05F022BDFCF760FA16
:104DB00000080020000000000000000000000000CB
:104DC00000B5094B83B01A68019201220270019963
:104DD0001A68002391424360C360037402D103B098
:104DE0005DF804FBFCF744FA000800200000000016
:104DF00070B5214E82B0336801930D4604460028F9
:104E000033D0002931D0202383F31188FEF7C8FC6A
:104E1000FDF786FC2378013B012B02D91748FDF7EB
:104E2000DFFB65606B68A360204605F021FD002272
:104E30000223E2602370FDF793FCFEF7C9FC104BE0
:104E40001A689A4204D0996993688A689A4208D38A
:104E5000002383F31188019A33689A4209D102B082
:104E600070BD0848FDF7BCFBF2E70448FDF7B8FB4E
:104E7000C9E7FCF7FDF900BF0008002040F000087A
:104E80003019002030F00008000000000000000091
:104E9000F0B5214E83B0336801930D4617460446A2
:104EA00078B3037C8B422CD9202383F31188FEF73F
:104EB00077FCFDF735FC2378022B02D01748FDF76D
:104EC0008FFBE3680122AA401343E3603A46294678
:104ED000204605F0B5FDFDF743FCFEF779FC104BCD
:104EE0001A689A4204D0996993688A689A420CD3E6
:104EF000002383F31188019A33689A4209D103B0E1
:104F0000F0BD0648FDF76CFBCEE70648FDF768FBF1
:104F1000EEE7FCF7ADF900BF0008002050F00008F4
:104F20003019002030F000080000000000000000F0
:104F300070B5204E82B0336801930D46044678B3B5
:104F4000037C8B422CD9202383F31188FEF728FCA5
:104F5000FDF7E6FB2378022B02D01748FDF740FB54
:104F6000E3680122AA4023EA0203E36029462046BF
:104F700005F07EFDFDF7F4FBFEF72AFC0F4B1A68E7
:104F80009A4204D0996993688A689A420CD30023A4
:104F900083F31188019A33689A4209D102B070BD37
:104FA0000548FDF71DFBCEE70548FDF719FBEEE7C9
:104FB000FCF75EF90008002070F0000830190020AE
:104FC00030F00008000000000000000000000000B9
:104FD00030B51E4D83B02B680193044680B3202367
:104FE00083F31188FEF7DCFBFDF79AFB2378022B95
:104FF00002D01748FDF7F4FA63689B68E3B12046D6
:1050000005F056FDFDF7ACFBFEF7E2FB114B1A680D
:105010009A4204D0996993688A689A4208D3002317
:1050200083F31188019A2B689A420DD103B030BDE9
:105030000948FDF7D5FAF2E70548FDF7D1FADEE7B2
:105040000348FDF7CDFACAE7FCF712F90008002083
:1050500090F000083019002030F000080000000037
:1050600070B5294E82B0336801930D46044600287E
:1050700032D0037C8B422FD9202383F31188FEF793
:105080008FFBFDF74DFB2378022B02D01F48FDF765
:10509000A7FAE368EB40DB0726D5636803EBC5039B
:1050A0001B6953B32946204605F022FDFDF758FB46
:1050B000FEF78EFB164B1A689A4204D099699368E2
:1050C0008A689A420CD3002383F31188019A3368CB
:1050D0009A4216D102B070BD0C48FDF781FACBE7B9
:1050E0000C48FDF77DFAEEE70848FDF779FA6368AA
:1050F00003EBC5031B69002BD4D10448FDF770FAFC
:10510000D0E7FCF7B5F800BF00080020B0F00008B9
:105110003019002030F000080000000000000000FE
:1051200070B5104D82B02B6801930E46044650B105
:1051300049B12379052B0CD00120019A2B689A42A2
:105140000ED102B070BD0848FDF74AFA2379052B4D
:10515000F2D1A36A73604FF4007333600020ECE770
:10516000FCF786F80008002040F10008000000006D
:105170002DE9F047DFF89C8386B002AFD8F8003005
:10518000FB600446002800F019812379022B01D02E
:10519000052B2BD103232371204602F079FF002237
:1051A0001146204602F0ECFF07F108034FF4D572D8
:1051B0000821204603F02CF8E0B9BB680122C3F3B4
:1051C00003239342226300F0FD80204602F098FF03
:1051D000022323710125FA68D8F800309A42284644
:1051E00040F046811037BD46BDE8F087C048FDF766
:1051F000F7F9CFE707F1080300223721204603F033
:1052000007F8002840F0BE80BB68BA4A1A40002A5E
:1052100040F0B88022631146204602F0B1FF266BB1
:1052200006F00F03022B00F0AF80B34EB34ADFF855
:10523000C492012B18BF1646642504E0013DC4D07A
:105240000A20FDF7A5FF07F10803002237212046B9
:1052500002F0DEFF0028B8D1BB6813EA090FB4D111
:1052600007F1080332462921204602F0A9FF002851
:10527000ABD1BB68002BE1DA5B0003D5236B43F0B5
:105280001003236304F1080300220221204603F0E7
:10529000B7F8002899D1024604F1380303212046CB
:1052A00002F0B6FF002890D104F118052B46A26B3E
:1052B0000921204603F0A4F8002886D13B1DA26BEB
:1052C0000721204602F0A4FF824600287FF47DAF2C
:1052D000236B03F00F03022B00F097806E467E22B3
:1052E00090B07F212846FFF73BF90DF1080900280F
:1052F00079D10146B546204602F0EAFE236B03F061
:105300000F03022B00F096802846FFF769F9A06290
:105310003B1D4FF400721021204602F079FF054634
:1053200000287FF452AF7B68724E33427FF44DAF5A
:10533000236B03F00F03012B40F2B280022B7FF4AA
:1053400044AFE36A1A79012A00F0A88017D3022A31
:1053500040F0E2806A4E1979204602F0E9FE07F13A
:10536000080332460621204602F052FF00287FF44F
:105370002CAFBA685F4B1340002B7FF426AF052398
:10538000237128E7022323635E4E642505E0013D77
:105390003FF41BAF0A20FDF7FBFE07F1080332467E
:1053A0000121204602F00CFF00287FF40EAFBB68FD
:1053B000002BECDA5B007FF565AF5FE74C48FDF74B
:1053C0000FF9E2E6024607F108033721204602F012
:1053D0001FFF00287FF4F9AEBA68464B1340002B3C
:1053E0007FF4F3AE1BE7CDF800A006234022494628
:1053F000204603F035F800284ED199F80D3013F00F
:10540000020337D11946B54675E7E36A1B687BB1DD
:1054100007F108033C4A0621204602F0F9FE38B99C
:10542000BB6834491940B1FA81F1490963E7B546CF
:10543000002160E77E227F212846FFF791F80128AE
:105440007FF662AFE36A1D68002D3FF4BEAE002315
:1054500000934FF4007208232946204603F000F819
:1054600000287FF4B2AE2846FFF7FAF8A0624FE7B3
:10547000FBF7FEFE254B00934022062349462046BB
:1054800002F0EEFF40B999F8103003F00F030F2B34
:10549000CDD0B54601212EE7B54696E61C4E5AE71B
:1054A000E36A197900293FF46AAF01297FF48DAED0
:1054B000204602F03DFE07F10803A26B372120468B
:1054C00002F0A6FE00287FF480AEBB6833427FF472
:1054D0007CAE07F1080302220621204602F098FE66
:1054E00000287FF472AEBB6833423FF448AF6CE6ED
:1054F000F0F0000808E0FFFD000010C00000108080
:105500000002B7030080FFC00001B903F1FFFF8074
:105510000001B703000800200248034EFDF760F8C1
:10552000E36A18E7D0F000080000B70300000000AD
:105530002DE9F041194D82B02C6801940F46904638
:105540001E460446C0B1BAB1B3B12379052B02D0CF
:105550001348FDF745F8781EA36A304498420FD9E6
:10556000636B43F0800363630120019A2B689A42C6
:1055700011D102B0BDE8F0810948FDF731F8E4E748
:1055800006203346207142463946204603F0C8F8CB
:1055900005232371E9E7FBF76BFE00BF000800203D
:1055A00010F10008000000000000000000000000F2
:1055B0002DE9F041194D82B02C6801940F469046B8
:1055C0001E460446C0B1BAB1B3B12379052B02D04F
:1055D0001348FDF705F8781EA36A304498420FD9A6
:1055E000636B43F0800363630120019A2B689A4246
:1055F00011D102B0BDE8F0810948FCF7F1FFE4E702
:1056000007203346207142463946204603F0C8F849
:1056100005232371E9E7FBF72BFE00BF00080020FC
:1056200020F1000800000000000000000000000061
:1056300070B50E4D82B02B680193044680B1267977
:10564000052E06D00120019A2B689A420CD102B097
:1056500070BD08232371204603F0E2F82671F2E7BB
:105660000348FCF7BDFFEAE7FBF702FE0008002055
:1056700030F1000800000000000000000000000001
:1056800070B5124D124E2B6882B0044601936B46E2
:10569000A26B0D21204602F0BBFD78B9009B33427E
:1056A0000BD1C3F34323042B08D04FF0010005D3E3
:1056B000072B03D8FDF76CFDE9E70120019A2B6861
:1056C0009A4201D102B070BDFBF7D2FD0008002064
:1056D00008E0FFFD000000000000000000000000E6
:1056E00070B52D4E82B033680193044600284CD02B
:1056F000202383F31188FEF753F8FDF711F823797F
:10570000022B29D0052B21D104232371FDF728F882
:10571000FEF75EF8214B1A689A4204D099699368A3
:105720008A689A4229D3002383F311882046FFF721
:10573000A7FF0546204602F0E3FC02232371019AED
:1057400033689A42284624D102B070BD1448FCF751
:1057500047FF2379022BD7D1FDF702F8FEF738F87F
:105760000E4B1A689A4204D0996993688A689A42E3
:1057700007D3002585F31188E1E70A48FCF730FFDD
:10578000D1E70848FCF72CFFF3E70548FCF728FFB2
:10579000AEE7FBF76DFD00BF0008002030190020C8
:1057A00000F1000850F100080000000000000000B7
:1057B00000B5074B83B01A680192019A1B689A42A0
:1057C00004D103B05DF804EB02F042BCFBF750FDDE
:1057D00000080020000000000000000000000000A1
:1057E00010B50A4B0A4A1968026082B0012401917F
:1057F00001991A680471002391424363C0E90A3396
:1058000001D102B010BDFBF733FD00BF000800203E
:1058100060F100080000000000000000000000002F
:1058200030B5084C83B025680195019D2468A542D8
:1058300005D10C3003B0BDE83040FEF789BBFBF763
:1058400017FD00BF0008002000000000000000005D
:1058500010B5094B82B01C680194019C1B689C42E6
:1058600007D10C304FF0FF3302B0BDE81040FEF717
:105870006FBBFBF7FDFC00BF00080020000000002C
:1058800030B5084C83B025680195019D2468A54278
:1058900005D1303003B0BDE83040FEF7B1BCFBF7B6
:1058A000E7FC00BF0008002000000000000000002E
:1058B00010B5094B82B01C680194019C1B689C4286
:1058C00007D130304FF0FF3302B0BDE81040FEF793
:1058D00097BCFBF7CDFC00BF0008002000000000D3
:1058E00000B5084B83B01A680192019A1B689A426E
:1058F00005D10C3003B05DF804EBFEF7D9BAFBF725
:10590000B7FC00BF000800200000000000000000FD
:1059100000B5094B83B01A680192019A1B689A423C
:1059200007D10C304FF0FF3103B05DF804EBFEF708
:10593000BFBAFBF79DFC00BF00080020000000007C
:1059400010B5084B82B01C680194019C1B689C42F6
:1059500005D1303002B0BDE81040FEF7B9BBFBF70F
:1059600087FC00BF000800200000000000000000CD
:1059700000B5094B83B01A680192019A1B689A42DC
:1059800007D130304FF0FF3203B05DF804EBFEF783
:105990009FBBFBF76DFC00BF00080020000000006B
:1059A00000B5074B83B01A680192019A1B689A42AE
:1059B00004D103B05DF804EB05F0EAB9FBF758FC3D
:1059C00000080020000000000000000000000000AF
:1059D000F0B5144D144B2F68044685B040F8043BD5
:1059E0004FF0010C00940B461646606084F808C026
:1059F00004F1540104F10C0010220397FEF7E8F9BA
:105A000033461022009404F1640104F13000FEF7E3
:105A10001FFB039A2B689A4201D105B0F0BDFBF73A
:105A200027FC00BF00080020B0F1000800000000C3
:105A300070B51D4D82B02B6801930E46044668B3C5
:105A4000202383F31188FDF7ABFEFCF769FE237A70
:105A5000013B012B02D91548FCF7C2FD3146204617
:105A600005F0B6F902232372FCF77AFEFDF7B0FECB
:105A70000F4B1A689A4204D0996993688A689A42CF
:105A800008D3002383F31188019A2B689A4209D125
:105A900002B070BD0748FCF7A3FDF2E70348FCF72E
:105AA0009FFDCDE7FBF7E4FB0008002090F1000824
:105AB0003019002080F10008000000000000000004
:105AC00070B5174D82B004462B6801930E46FCF763
:105AD000F7FEF4B1FCF7F4FE636963B1314604F1FB
