:020000040800F2
:1000000000040020C1010008D1230008D12300080A
:10001000811A0008D1230008D1230008D123000849
:10002000D1230008D1230008D123000891440008FF
:10003000D1230008D1230008D1230008C192000871
:10004000D1230008C16C0008516E0008A16E0008A1
:10005000D1230008D1230008016A0008516A000872
:10006000A16A0008F16A0008416B0008415F0008BE
:10007000915F0008E15F00083160000881600008BE
:10008000D160000821610008716800084170000813
:10009000B17000086171000811720008916B0008CE
:1000A000D1230008D1230008E18F0008D1230008E4
:1000B0004191000881910008C1910008D17F00089A
:1000C00011810008D1230008D1230008D1230008A2
:1000D000D1230008D1230008D12300088193000810
:1000E000216C0008116D0008616D00082190000866
:1000F000D1230008D1230008D12300087161000832
:10010000D1230008A173000801920008D123000840
:10011000D1230008D1230008A18F0008D1230008B3
:10012000C16100081162000861620008B162000844
:1001300001630008D1230008B16D0008D123000835
:10014000D1230008D1230008D1230008E18B000847
:1001500051630008A1630008F1630008D12300087F
:10016000D1230008D1230008D1230008D12300089F
:10017000016E0008D1230008A1170008D123000850
:10018000D1230008D1230008D1230008D12300087F
:10019000D1230008D1230008D1230008D12300086F
:1001A000D1230008D1230008D1230008D12300085F
:1001B000D1230008D1230008D1230008D12300084F
:1001C00072B62E4880F3098840F20000CCF200009D
:1001D0004EF63471CEF20001086040F20000C0F229
:1001E000F0004EF68851CEF2000108604FF000009A
:1001F000E1EE100A4EF63C71CEF2000108600620D6
:1002000080F31488BFF36F8F09F002FA4FF0553076
:100210001B491C4A91423CBF41F8040BFAE71A49BA
:10022000164A91423CBF41F8040BFAE71749184AB5
:10023000184B9A423EBF51F8040B42F8040BF8E702
:1002400000201549154A91423CBF41F8040BFAE7DA
:1002500002F0A6F8124C134DAC4203DA54F8041B1A
:100260008847F9E701F0B4F90F4C104DAC4203DABE
:1002700054F8041B8847F9E702F0A2B800080020F0
:1002800000000020000400200004002008E3000813
:1002900000080020EC110020F0110020582500205B
:1002A000C0010008C0010008C0010008C00100082A
:1002B0002DE9F04F2DED108AC1F80CD0D0F80CD0FC
:1002C000BDEC108ABDE8F08F02F0C2F903F0F8F936
:1002D000002383F311882846A047002002F090FFF6
:1002E00003F0D6F902F094F902F0B2FD02F0B0F991
:1002F00003F0E6F900DFFEE7000000000000000068
:1003000081F0004102E000BF83F0004330B54FEAC6
:1003100041044FEA430594EA050F08BF90EA020F33
:100320001FBF54EA000C55EA020C7FEA645C7FEAC6
:10033000655C00F0E2804FEA5454D4EB5555B8BFE9
:100340006D420CDD2C4480EA020281EA030382EA5A
:10035000000083EA010180EA020281EA0303362DEC
:1003600088BF30BD11F0004F4FEA01314FF4801CBF
:100370004CEA113102D0404261EB410113F0004FD1
:100380004FEA03334CEA133302D0524263EB430388
:1003900094EA050F00F0A780A4F10104D5F1200E26
:1003A0000DDB02FA0EFC22FA05F2801841F1000181
:1003B00003FA0EF2801843FA05F359410EE0A5F155
:1003C00020050EF1200E012A03FA0EFC28BF4CF086
:1003D000020C43FA05F3C01851EBE37101F000453C
:1003E00007D54FF0000EDCF1000C7EEB00006EEB49
:1003F0000101B1F5801F1BD3B1F5001F0CD34908D3
:100400005FEA30004FEA3C0C04F101044FEA445229
:1004100012F5800F80F09A80BCF1004F08BF5FEAB0
:10042000500C50F1000041EB045141EA050130BD90
:100430005FEA4C0C404141EB010111F4801FA4F133
:100440000104E9D191F0000F04BF01460020B1FA88
:1004500081F308BF2033A3F10B03B3F120020CDAC0
:100460000C3208DD02F1140CC2F10C0201FA0CF09E
:1004700021FA02F10CE002F11402D8BFC2F1200C03
:1004800001FA02F120FA0CFCDCBF41EA0C019040B9
:10049000E41AA2BF01EB0451294330BD6FEA040402
:1004A0001F3C1CDA0C340EDC04F11404C4F12002ED
:1004B00020FA04F001FA02F340EA030021FA04F3FF
:1004C00045EA030130BDC4F10C04C4F1200220FA56
:1004D00002F001FA04F340EA0300294630BD21FA94
:1004E00004F0294630BD94F0000F83F4801306BF5A
:1004F00081F480110134013D4EE77FEA645C18BF4E
:100500007FEA655C29D094EA050F08BF90EA020FE4
:1005100005D054EA000C04BF1946104630BD91EADC
:10052000030F1EBF0021002030BD5FEA545C05D1DF
:100530004000494128BF41F0004130BD14F580041E
:100540003CBF01F5801130BD01F0004545F0FE4192
:1005500041F470014FF0000030BD7FEA645C1ABFC7
:10056000194610467FEA655C1CBF0B46024650EAFE
:10057000013406BF52EA033591EA030F41F400212A
:1005800030BD00BF90F0000F04BF0021704730B5B0
:100590004FF4806404F132044FF000054FF0000185
:1005A00050E700BF90F0000F04BF0021704730B546
:1005B0004FF4806404F1320410F0004548BF40421B
:1005C0004FF000013EE700BF42004FEAE2014FEA70
:1005D00031014FEA02701FBF12F07F4393F07F4F4B
:1005E00081F06051704732F07F4208BF704793F04E
:1005F0007F4F04BF41F40021704730B54FF4607461
:1006000001F0004521F000411CE700BF50EA010263
:1006100008BF704730B54FF000050AE050EA01020C
:1006200008BF704730B511F0004502D5404261EB7C
:1006300041014FF4806404F132045FEA915C3FF4BD
:10064000D8AE4FF003025FEADC0C18BF03325FEA5A
:10065000DC0C18BF033202EBDC02C2F1200300FA0B
:1006600003FC20FA02F001FA03FE40EA0E0021FA30
:1006700002F11444BDE600BF0000000000000000CD
:1006800070B54FF0FF0C4CF4E06C1CEA11541DBF28
:100690001CEA135594EA0C0F95EA0C0F00F0DEF8F3
:1006A0002C4481EA030621EA4C5123EA4C5350EAD8
:1006B000013518BF52EA033541F4801143F4801329
:1006C00038D0A0FB02CE4FF00005E1FB02E506F0BA
:1006D0000042E0FB03E54FF00006E1FB03569CF00F
:1006E000000F18BF4EF0010EA4F1FF04B6F5007F15
:1006F00064F5407404D25FEA4E0E6D4146EB060687
:1007000042EAC62141EA55514FEAC52040EA5E500F
:100710004FEACE2EB4F1FD0C88BFBCF5E06F1ED8B9
:10072000BEF1004F08BF5FEA500E50F1000041EBF0
:10073000045170BD06F0004646EA010140EA02009D
:1007400081EA0301B4EB5C04C2BFD4EB0C0541EABF
:10075000045170BD41F480114FF0000E013C00F3D4
:10076000AB8014F1360FDEBF002001F0004170BDF8
:10077000C4F10004203C35DA0C341BDC04F1140411
:10078000C4F1200500FA05F320FA04F001FA05F29D
:1007900040EA020001F0004221F0004110EBD3706A
:1007A00021FA04F642EB06015EEA430E08BF20EA96
:1007B000D37070BDC4F10C04C4F1200500FA04F339
:1007C00020FA05F001FA04F240EA020001F00041CB
:1007D00010EBD37041F100015EEA430E08BF20EA3E
:1007E000D37070BDC4F1200500FA05F24EEA020E86
:1007F00020FA04F301FA05F243EA020321FA04F0B5
:1008000001F0004121FA04F220EA020000EBD3706B
:100810005EEA430E08BF20EAD37070BD94F0000F6B
:100820000FD101F00046400041EB010111F4801F9F
:1008300008BF013CF7D041EA060195F0000F18BF50
:10084000704703F00046520043EB030313F4801F8C
:1008500008BF013DF7D043EA0603704794EA0C0F46
:100860000CEA135518BF95EA0C0F0CD050EA41065C
:1008700018BF52EA4306D1D181EA030101F00041D9
:100880004FF0000070BD50EA410606BF1046194601
:1008900052EA430619D094EA0C0F02D150EA01360D
:1008A00013D195EA0C0F05D152EA03361CBF10464E
:1008B00019460AD181EA030101F0004141F0FE41ED
:1008C00041F470014FF0000070BD41F0FE4141F471
:1008D000780170BD70B54FF0FF0C4CF4E06C1CEA71
:1008E00011541DBF1CEA135594EA0C0F95EA0C0F26
:1008F00000F0A7F8A4EB050481EA030E52EA0335E1
:100900004FEA013100F088804FEA03334FF0805501
:1009100045EA131343EA12634FEA022245EA11152E
:1009200045EA10654FEA00260EF000419D4208BFDF
:10093000964244F1FD0404F5407402D25B084FEA8C
:100940003202B61A65EB03055B084FEA32024FF438
:1009500080104FF4002CB6EB020E75EB030E22BF95
:10096000B61A754640EA0C005B084FEA3202B6EB55
:10097000020E75EB030E22BFB61A754640EA5C0004
:100980005B084FEA3202B6EB020E75EB030E22BF94
:10099000B61A754640EA9C005B084FEA3202B6EB95
:1009A000020E75EB030E22BFB61A754640EADC0054
:1009B00055EA060E18D04FEA051545EA16754FEAB6
:1009C00006164FEAC30343EA52734FEAC2025FEAD4
:1009D0001C1CC0D111F4801F0BD141EA00014FF063
:1009E00000004FF0004CB6E711F4801F04BF014334
:1009F0000020B4F1FD0C88BFBCF5E06F3FF6AFAE50
:100A0000B5EB030C04BFB6EB020C5FEA500C50F1DF
:100A1000000041EB045170BD0EF0004E4EEA113162
:100A200014EB5C04C2BFD4EB0C0541EA045170BD69
:100A300041F480114FF0000E013C90E645EA060EAD
:100A40008DE60CEA135594EA0C0F08BF95EA0C0FDB
:100A50003FF43BAF94EA0C0F0AD150EA01347FF423
:100A600034AF95EA0C0F7FF425AF104619462CE7FA
:100A700095EA0C0F06D152EA03353FF4FDAE10465D
:100A8000194622E750EA410618BF52EA43067FF4AE
:100A9000C5AE50EA41047FF40DAF52EA43057FF43E
:100AA000EBAE12E7000000000000000000000000B4
:100AB0004FF0FF3C06E000BF4FF0010C02E000BF2A
:100AC0004FF0010C4DF804CD4FEA410C7FEA6C5C0D
:100AD0004FEA430C18BF7FEA6C5C1BD001B050EAB0
:100AE000410C0CBF52EA430C91EA030F02BF90EA9B
:100AF000020F0020704710F1000F91EA030F58BF5A
:100B0000994208BF90422CBFD8176FEAE37040F0BB
:100B1000010070474FEA410C7FEA6C5C02D150EA59
:100B2000013C07D14FEA430C7FEA6C5CD6D152EA14
:100B3000033CD3D05DF8040B704700BF84461046D9
:100B400062468C461946634600E000BF01B5FFF7D8
:100B5000B7FF002848BF10F1000F01BD4DF808EDA8
:100B6000FFF7F4FF0CBF012000205DF808FB00BF79
:100B70004DF808EDFFF7EAFF34BF012000205DF8D3
:100B800008FB00BF4DF808EDFFF7E0FF94BF012020
:100B900000205DF808FB00BF4DF808EDFFF7CEFF21
:100BA00094BF012000205DF808FB00BF4DF808ED60
:100BB000FFF7C4FF34BF012000205DF808FB00BF31
:100BC0004FEA410212F5001215D211D56FF4787375
:100BD000B3EB625212D94FEAC12343F0004343EA18
:100BE000505311F0004F23FA02F018BF40427047F3
:100BF0004FF00000704750EA013005D111F000407D
:100C000008BF6FF0004070474FF00000704700BF12
:100C10004FEA4102B2F1E04324BFB3F5001CDCF11E
:100C2000FE5C0DD901F0004C4FEAC0024CEA507056
:100C3000B2F1004F40EB830008BF20F00100704785
:100C400011F0804F21D113F13872BCBF01F0004088
:100C5000704741F480114FEA5252C2F11802C2F1BA
:100C6000200C10FA0CF320FA02F018BF40F001003B
:100C70004FEAC1234FEAD32303FA0CFC40EA0C00ED
:100C800023FA02F34FEA4303CCE77FEA625307D12A
:100C900050EA01331EBF4FF0FE4040F44000704761
:100CA00001F0004040F0FE4040F40000704700BFFB
:100CB00053B94AB9002908BF00281CBF4FF0FF31C3
:100CC0004FF0FF3000F074B9ADF1080C6DE904CEBF
:100CD00000F006F8DDF804E0DDE9022304B0704717
:100CE0002DE9F047089E04468846002B4BD18A42E6
:100CF000154667D9B2FA82F24AB1C2F1200701FA69
:100D000002F320FA07F7954047EA030894404FEAB8
:100D1000154E230CB8FBFEF71FFA85FC0EFB178857
:100D200043EA084307FB0CF1994209D9EB1807F194
:100D3000FF3080F01B81994240F21881023F2B4422
:100D40005B1AA4B2B3FBFEF00EFB103344EA03447B
:100D500000FB0CFCA44509D92C1900F1FF3380F0ED
:100D60000781A44540F2048102382C4440EA074040
:100D7000A4EB0C0400271EB1D4400023C6E90043B5
:100D80003946BDE8F0878B4209D9002E00F0EB8090
:100D90000027C6E9000138463946BDE8F087B3FAB6
:100DA00083F7002F47D18B4202D3824200F2FA80B0
:100DB000841A61EB030301209846002EE0D0C6E9B7
:100DC0000048DDE702B9FFDEB2FA82F2002A40F005
:100DD0008F80491B4FEA154E1FFA85F80127B1FB9A
:100DE000FEFC230C0EFB1C1143EA014308FB0CF133
:100DF000994207D9EB180CF1FF3002D2994200F268
:100E0000CD808446591AA3B2B1FBFEF00EFB10143C
:100E100043EA044408FB00F8A04507D92C1900F167
:100E2000FF3302D2A04500F2B6801846A4EB0804B6
:100E300040EA0C409FE7C7F1200CBB4022FA0CFEB1
:100E40004EEA030E01FA07F420FA0CF521FA0CF32E
:100E50004FEA1E482543B3FBF8F92C0C08FB193365
:100E60001FFA8EFA44EA034309FB0AF49C4202FA91
:100E700007F200FA07F10BD91EEB030309F1FF306B
:100E800080F087809C4240F28480A9F1020973447B
:100E90001B1BADB2B3FBF8F008FB103345EA03446B
:100EA00000FB0AFAA24508D91EEB040400F1FF3347
:100EB0006BD2A24569D90238744440EA0940A0FBCC
:100EC0000289A4EB0A044C45C2464B4654D351D088
:100ED000002E69D0B1EB0A0564EB030404FA0CFCA4
:100EE000FD40FC404CEA0505C6E90054002747E7F1
:100EF000C2F1200320FA03F7954001FA02F021FA2B
:100F000003F34FEA154E3843010CB3FBFEF71FFA0B
:100F100085F80EFB173341EA034107FB08F38B42C8
:100F200004FA02F407D9691807F1FF3C2FD28B426B
:100F30002DD9023F2944CB1A81B2B3FBFEF00EFB40
:100F4000103341EA034100FB08F38B4207D96918CB
:100F500000F1FF3C17D28B4215D902382944C91A37
:100F600040EA07473BE73746304609E70746E7E6EA
:100F70001846FBE64145ABD2B8EB020A69EB0E021C
:100F800001381346A4E76046E9E7184695E7674647
:100F9000D1E781467CE702382C4447E7ACF1020CEC
:100FA0002B442FE7384608E73746E9E60000000003
:100FB000704700BF000000000000000000000000BB
:100FC000844641EA000313F003036DD1403A41D354
:100FD00051F8043B40F8043B51F8043B40F8043B13
:100FE00051F8043B40F8043B51F8043B40F8043B03
:100FF00051F8043B40F8043B51F8043B40F8043BF3
:1010000051F8043B40F8043B51F8043B40F8043BE2
:1010100051F8043B40F8043B51F8043B40F8043BD2
:1010200051F8043B40F8043B51F8043B40F8043BC2
:1010300051F8043B40F8043B51F8043B40F8043BB2
:1010400051F8043B40F8043B51F8043B40F8043BA2
:10105000403ABDD2303211D351F8043B40F8043B42
:1010600051F8043B40F8043B51F8043B40F8043B82
:1010700051F8043B40F8043B103AEDD20C3205D352
:1010800051F8043B40F8043B043AF9D2043208D04A
:10109000D2071CBF11F8013B00F8013B01D30B88BC
:1010A00003806046704700BF082A13D38B078DD09A
:1010B00010F003038AD0C3F10403D21ADB071CBF6C
:1010C00011F8013B00F8013B80D331F8023B20F8D6
:1010D000023B7BE7043AD9D3013A11F8013B00F80F
:1010E000013BF9D20B7803704B7843708B78837097
:1010F0006046704700000000000000000000000093
:10110000A2EB0300704700BF02780B78012A28BFCA
:101110009A42F5D16DE9044540EA0104CDE9026740
:101120006FF0000C4FEA447212B380EA010414F02D
:10113000070F6AD100F0070420F0070004F0030550
:1011400021F007014FEAC505F0E8042314F0040F6D
:10115000F1E804670CFA05F462EA040266EA0406A0
:101160000AD063EA0403624667EA0407664603E0BE
:10117000F0E80423F1E8046782FA4CF582EA0604F9
:10118000A4FA8CF46CBB83FA4CF583EA0705A5FA44
:101190008CF595B950E9022351E9026782FA4CF5C2
:1011A00082EA0604A4FA8CF483FA4CF583EA070574
:1011B000A5FA8CF52543DBD09CB92DBAB5FA85F498
:1011C00024F0070427FA04F1DDE9026723FA04F3A7
:1011D00003F0FF0001F0FF01FDE80445A0EB010072
:1011E000704724BAB4FA84F424F0070426FA04F110
:1011F000DDE9026722FA04F202F0FF0001F0FF01CC
:10120000FDE80445A0EB0100704714F0030F3CD14A
:1012100010F0030428D150F8082B51F8083B82FA4B
:101220004CF582EA0305A5FA8CF55DB950F8042C5B
:1012300051F8043C82FA4CF582EA0305A5FA8CF5D4
:10124000002DE8D02DBAB5FA85F424F0070423FA6E
:1012500004F122FA04F202F0FF0001F0FF01FDE8C0
:101260000445A0EB010070474FEAC40420F00300DE
:1012700050F8082B21F0030151F8083B0CFA04F454
:1012800062EA040263EA0403C9E710F003041AD017
:10129000A1EB040120F00300E40750F8042B06D072
:1012A0000FD28B785FFAA2F4E41A06D12BB1CB7877
:1012B0005FFAB2F4E41A00D11BB920465DF8104B76
:1012C000704701F1040150F8042BCC0721F0030111
:1012D00051F8043B48D824D222F07F4482FA4CF5DE
:1012E00094EA1325A5FA8CF50AD165B951F8043BA7
:1012F00084EA0204B4EB036F0ED150F8042BEBE741
:101300004FEA132355E035F07F454DD10878FDE8CD
:101310000445C0F1000070474FEA126203F0FF037A
:1013200047E002EA1C4482FA4CF594EA1345A5FA18
:101330008CF50AD165B951F8043B84EA0204B4EB98
:10134000034F0CD150F8042BEBE74FEA134330E086
:1013500015EA1C4528D10B884FEA124229E04FEAD2
:10136000124203EA1C4324E002F0FF0482FA4CF527
:1013700094EA1365A5FA8CF50AD165B951F8043BD6
:1013800084EA0204B4EB032F09D150F8042BEBE7F5
:101390004FEA13630DE015F0FF0F05D10B684FEA1C
:1013A000122223F07F4304E04FF00000FDE80445E3
:1013B000704712BA1BBA82FA4CF482EA0304A4FA08
:1013C0008CF5B5FA85F402FA04F203FA04F34FEA55
:1013D0001260FDE80445A0EB1360704700000000B8
:1013E00090F800F06DE9024520F007016FF0000C65
:1013F00010F0070491F820F040F049804FF000040D
:101400006FF00700D1E9002391F840F000F10800E7
:1014100082FA4CF2A4FA8CF283FA4CF3A2FA8CF31F
:101420004BBBD1E9022382FA4CF200F10800A4FA86
:101430008CF283FA4CF3A2FA8CF3E3B9D1E90423DA
:1014400082FA4CF200F10800A4FA8CF283FA4CF311
:10145000A2FA8CF37BB9D1E9062301F1200182FACB
:101460004CF200F10800A4FA8CF283FA4CF3A2FAD1
:101470008CF3002BC6D0002A04BF04301A4612BADF
:10148000B2FA82F2FDE8024500EBD2007047D1E9E2
:10149000002304F00305C4F100004FEAC50514F071
:1014A000040F91F840F00CFA05F562EA05021CBF42
:1014B00063EA050362464FF00004A9E7000000005C
:1014C00001F0FF01102A2BDB10F0070F08D010F8F5
:1014D000013B013A8B422DD010F0070F42B3F6D1F9
:1014E000F0B441EA012141EA014122F007047FF012
:1014F00000070023F0E80256083C85EA010586EA69
:10150000010685FA47F5A3FA87F586FA47F6A5FAA4
:1015100087F68EB9EED1F0BC01F0FF0102F00702B0
:1015200032B110F8013B013A83EA010313B1F8D15B
:101530000020704701387047002D06BF354603383C
:10154000073815F0010F07D1013015F4807F02BF75
:10155000013015F4C03F0130F0BC0138704700BFC6
:101560004FEA410C7FEA6C5C02D150EA013C0AD19F
:101570004FEA430C7FEA6C5C02D152EA033C02D191
:101580004FF0000070474FF001007047000000006E
:101590000EB410B583B005AA094C52F8041B236899
:1015A00008480092019308F08BF8019A23689A4248
:1015B00004D103B0BDE8104003B0704700F0B0F8AC
:1015C00000080020AC240020000000000000000003
:1015D0002DE9F04F474B484D1B68DFF83891A3B019
:1015E000219302F0B5FF00F00BFF44484449044644
:1015F00004F00EF800F02CF900F0D2FB414A424909
:10160000424800F0CDFD4249404800F039FE804696
:101610004FF4FA6001F034FD0DA94046502200F06D
:1016200097FEBDF96670BDF96460BDF96200BDF951
:101630006010BDF95E30BDF95C20CDE90267CDE9EF
:10164000001029462046FFF7A3FFBDF966B0BDF99B
:101650007220BDF97070BDF96460BDF96CE0BDF930
:101660006200BDF96EA0BDF96010BDF95EC0BDF9A4
:101670006A30ABEB0202F61B0392BDF95C70BDF958
:1016800068200296A1EB0E01A0EB0A00ACEB03036D
:10169000BA1ACDE9001029462046FFF779FF0D98C8
:1016A000FEF792FF9DF880300A93064612980F4687
:1016B000FEF78AFFCDE908011198FEF785FFCDE915
:1016C00006011098FEF780FFCDE904010F98FEF7A0
:1016D0007BFFCDE902010E98FEF776FF3246CDE999
:1016E00000013B4649462046FFF752FF642001F0C7
:1016F000C7FC91E70008002028D60008AC24002091
:1017000020080020040800200C080020F011002010
:1017100020D600085CD60008000000000000000091
:1017200000B5084B83B01A680192019A1B689A426F
:1017300005D1054803B05DF804EB00F0C9BEFFF722
:10174000EFFF00BF0008002000D6000800000000E6
:1017500030B5104D81682B680F4A83B001930B6838
:1017600023F001030B608168946A03E0936A1B1BFA
:10177000C72B09D8086810F00100F7D1019A2B682F
:101780009A4204D103B030BD4FF0FF30F6E7FFF7C7
:10179000C7FF00BF000800207816002000000000EE
:1017A000F0B5284D83B02B68019301F039FF00F0AC
:1017B000AFFF254B1E69F20715D55A69234C42F03D
:1017C00001025A612778BB1F012B2AD905226368C1
:1017D00022701B680BB120469847042F27D0022F98
:1017E00025D003232370B30710D5174A174C53692C
:1017F00043F0020353612378032B1DD063689B6879
:101800000622227013B101211048984700F0A8FF6A
:10181000019A2B689A4213D103B0BDE8F04002F060
:1018200057BE019A2B689A420AD103B0F0BD022339
:101830002370B307EAD5D8E72046FFF789FFDDE735
:10184000FFF76EFF0008002000000550FC1100208B
:1018500070B5164E16483368154D82B005224FF408
:101860008071019306F0D4FA20246B6983F48073AD
:101870006B61012001F004FC631E13F0FF04F4D13E
:101880004FF4807140F206222983094806F0C0FA1D
:10189000019A33689A4206D10649074802B0BDE86A
:1018A000704003F075B8FFF73BFF00BF0008002051
:1018B00000040240A0D60008F8200020000000002C
:1018C0002DE9F041204C214E88B0002335688DF879
:1018D0001830804620468DF814101746079503F0FF
:1018E0006FF92378012B0CD00420012306AACDE93F
:1018F00001300092414605AA204603F0F1F8054662
:1019000068B9114803F07CF99DF818303B7000204D
:10191000079A33689A4215D108B0BDE8F081204695
:1019200003F0C6F823780A4A052B106004D0064855
:1019300003F066F968B2EBE7204603F071F8FFF7B1
:1019400087FFF4E7FFF7ECFEF820002000080020F6
:101950001412002000000000000000000000000041
:10196000F0B51F4C1F4E89B033680793074600251A
:1019700020468DF818108DF819208DF8145003F0BA
:101980001FF92378012B0CD0042205AB019502929C
:1019900000933946022306AA204603F0A1F8054623
:1019A00048B90F4803F02CF90020079A33689A428F
:1019B00014D109B0F0BD204603F07AF823780A4A22
:1019C000052B106004D0064803F01AF968B2ECE762
:1019D000204603F025F8FFF73BFFF4E7FFF7A0FEF2
:1019E000F820002000080020141200200000000051
:1019F0002DE9F0431E4C1F4E89B035688DF8171045
:101A00000746204690469946079503F0D9F8217875
:101A100001290CD004230293CDE900893946012322
:101A20000DF11702204603F05BF8054650B9104847
:101A300003F0E6F80020079A33689A4215D109B0FE
:101A4000BDE8F083204603F033F823780A4A052BDB
:101A5000106004D0064803F0D3F868B2EBE72046E4
:101A600002F0DEFFFFF7F4FEF4E7FFF759FE00BFD8
:101A7000F8200020000800201412002000000000C0
:101A800070B51A4D1A4C1B4E0FCD0FC49EB02A686C
:101A9000336822801D93EFF30981682203A8FFF7C2
:101AA0008FFA154B9D6AAA0714D4EB0708D5124B81
:101AB00008995B6B114A00910D48802108F0E8FB02
:101AC0001D9A33689A420FD109481EB0BDE8704094
:101AD00000F0FEBC099A5B6B0092A4F11000084A6A
:101AE000802108F0D5FBE0E7FFF71AFEF4D60008E6
:101AF000181200200008002000ED00E0D0D60008F9
:101B0000B0D6000800000000000000000000000047
:101B10000A490B4B09680B4A82B0202001914021F1
:101B200058834FF4806559834FF400644FF480402C
:101B300004215D835C8358835183FEE70008002005
:101B4000000C024000040240000000000000000001
:101B50002DE9F04F7D4C7E4AA3697E489A617E4A0A
:101B6000AFB0012312682D920CA91A4602F0F0F8CA
:101B700011AD0AAB50222946009216A81A46CDE9AB
:101B80001155CDE90A330025744B1595CDE9135550
:101B900000F01EFB16A9724A724800F041FBA369CF
:101BA00093F8216016F0040640F083806B4FDFF855
:101BB000E0B1DFF8E091DFF8E08107F13403B246ED
:101BC000CDE9076609933FE05022644916A800F06A
:101BD0007FFB99F80030B3B1634A1378002B70D0C3
:101BE000012B10D1614B07981B78614A03F1140156
:101BF000127837F911C008990130C0B261448242AD
:101C00000790089171D098F80030A3B1594A137821
:101C1000002B60D0012B0ED1574B584A1B781278FD
:101C200007EB43010AF1010AB1F92E105FFA8AFAB3
:101C300052450E4472D0291D284601F061FAA3696D
:101C400093F821305B0734D4202383F3118801F00B
:101C50001FFD00F0DDFCA56A00F0FAFC01F030FD8C
:101C60002368A34207D0A2699B6892689A4202D275
:101C7000434800F02DFC002383F311889BF80030CB
:101C8000002BA1D03F48099900F11203A0F11202E4
:101C90000493A0F10C03CDE90201CDE90032A0F1DB
:101CA0003A01A0F11E03A0F122022E3800F050F9F3
:101CB0008AE7294B2D9A1B689A4245D12FB0BDE87F
:101CC000F08F2A4908930978079307EB4101012017
:101CD0008B86107097E72849097807EB41010120AE
:101CE0001E464B879A461070A5E70A4692FBF0F213
:101CF000254890F800E003F1200112B24FF0000CEB
:101D0000BEF1010F27F8112089F800C07FF47BAFE6
:101D100007EB430380F800C09A8674E71B4896FBE4
:101D2000FAF290F800E007EB430112B24FF0000C1A
:101D3000BEF1010FA1F8462088F800C07FF47BAF08
:101D400080F800C04A8776E7FFF7EAFC78160020A3
:101D500010D70008101200200008002028160020CC
:101D600020D60008F0110020991200209A120020BD
:101D70009C1200209E1200209F120020A112002021
:101D800020D70008621600209B120020A01200201D
:101D9000A8120020981200209D12002000000000D0
:101DA00030B5124D124C2B78226885B003922BB1BE
:101DB000039A23689A4216D105B030BDFFF748FD5B
:101DC0004FF4C84000F01CF808B901232B70002321
:101DD00000930848084B40224FF45E7101F0F8F878
:101DE000064B1860E4E7FFF79BFC00BFA812002039
:101DF00000080020B0120020511B0008A41200208F
:101E0000F0B5504D504C2B6883B0074601932078B5
:101E1000002380226B218DF80330FFF7A1FD58B11C
:101E20002378682B0CBF6920682080226B212070EA
:101E3000FFF796FD00287CD1012001F021F96826EA
:101E400002E0012001F01CF90DF103026B21207862
:101E5000FFF736FD78B12378682B0CBF6920682026
:101E60000DF103024FF06B010CBF20702670FFF7DD
:101E700027FD00285DD19DF90330002BE1DB7E00BA
:101E800006F0180632461B212078FFF769FD58B18D
:101E90002378682B0CBF6920682032461B212070F4
:101EA000FFF75EFD002844D1FE00012006F0180671
:101EB00001F0E6F832461C212078FFF751FD50B1C1
:101EC0002378682B0CBF6920682032461C212070C3
:101ED000FFF746FD68BB0120C7F3072701F0D0F8E4
:101EE0003A4619212078FFF73BFD50B12378682B43
:101EF0000CBF692068203A4619212070FFF730FD99
:101F0000B8B9012001F0BCF8012238212078FFF790
:101F100027FD50B12378682B0CBF6920682001226F
:101F200038212070FFF71CFD18B9012001F0A8F836
:101F30000020019A2B689A4201D103B0F0BDFFF74F
:101F4000EFFB00BF000800202C080020000000006C
:101F50002DE9F0412E4E2F4F336888B00446079389
:101F60000D469046387801AA16233A21FFF740FD26
:101F700058B13B78682B0CBF6920682001AA162352
:101F80003A213870FFF734FDB0BBB8F1000F03D031
:101F90009DF8043088F80030BDB19DF907309DF8F8
:101FA00008209DF905709DF806109DF9090042EA88
:101FB00003229DF80A3041EA072143EA00234942FF
:101FC00052425B4229806A80AB80E4B19DF91100E6
:101FD0009DF90D709DF80E109DF90F509DF8102081
:101FE0009DF8123041EA072143EA002342EA052224
:101FF00021806280A3800020079A33689A4204D12E
:1020000008B0BDE8F0812046F6E7FFF789FB00BF86
:10201000000800202C080020000000000000000044
:1020200000B5084B83B01A680192019A1B689A4266
:1020300005D1054803B05DF804EB01F071BCFFF772
:102040006FFB00BF000800203008002000000000E7
:1020500000B5084B83B01A680192019A1B689A4236
:1020600005D1054803B05DF804EB01F091BCFFF722
:1020700057FB00BF000800203008002000000000CF
:1020800070B50D4C82B0236801930D1E06460DDD20
:10209000284602F095F918B90C2333604FF0FF3051
:1020A000019A23689A4205D102B070BD034800F03E
:1020B0000FFAEDE7FFF734FB0008002030D70008E7
:1020C00000B5064B83B01A680192019A1B689A42C8
:1020D00002D103B05DF804FBFFF722FB00080020EB
:1020E00000B5074B83B01A680192019A1B689A42A7
:1020F00004D103B05DF804EB01F012BCFFF710FB54
:1021000000080020000000000000000000000000A7
:1021100000B5074B83B01A680192019A1B689A4276
:1021200004D103B05DF804EB01F032BCFFF7F8FA1C
:102130000008002000000000000000000000000077
:1021400000B5074B83B01A680192019A1B689A4246
:1021500004D103B05DF804EB01F042BDFFF7E0FAF3
:102160000008002000000000000000000000000047
:1021700000B5074B83B01A680192019A1B689A4216
:1021800004D103B05DF804EB01F0AABDFFF7C8FA73
:102190000008002000000000000000000000000017
:1021A00010B5084B82B01C68019400240460019CA7
:1021B0001B689C42C0E9011201D102B010BDFFF7BB
:1021C000AFFA00BF0008002000000000000000007F
:1021D0002DE9F0430E4D83B02C68019404469946D6
:1021E0000F46164610304C220021DDF8288007F0FB
:1021F000FFFFC4F80090019A2B68E6609A42C4E998
:10220000018702D103B0BDE8F083FFF789FA00BF70
:102210000008002000000000000000000000000096
:10222000F0B5144E83B001F11003174632680192E5
:102230000446412218460D46002107F0D9FF3946D1
:10224000402208F06DF86068FFF74AFF236803B189
:10225000AB652560A068FFF773FF019A33689A4267
:1022600005D1606803B0BDE8F040FFF751BFFFF74C
:1022700057FA00BF00080020000000000000000026
:10228000F0B5124F83B006463B68406801930D4697
:10229000FFF726FF346814B912E0A46D84B104F18D
:1022A00010012846FEF730FF0028F6D17068FFF7CE
:1022B0002FFF019A3B689A42204605D103B0F0BD3A
:1022C000B068FFF755FFE5E7FFF72AFA000800209E
:1022D000F0B51C4E436883B00546934230680190C8
:1022E00006D20020019A33689A4229D103B0F0BD8A
:1022F00014460F46A868FFF7F3FE224639462868C1
:10230000FEF75EFE012385F85130E868FFF718FFFD
:102310006C6D84B123681868FFF7E2FE23689D6046
:1023200023685868FFF70CFF23681868FFF7F0FE72
:102330006468002CEED1A868FFF7EAFE0120D1E71F
:10234000FFF7EEF900080020000000000000000088
:10235000F0B50F4D83B004462B68806801930E469C
:102360001746FFF7BDFEE068FFF702FF3A4630462A
:102370002168FEF725FE019A2B689A4205D1A068D4
:1023800003B0BDE8F040FFF7C3BEFFF7C9F900BFD7
:102390000008002000000000000000000000000015
:1023A00000B5064B83B01A680192019A1B689A42E5
:1023B00002D103B05DF804FBFFF7B2F9000800207A
:1023C000024B82B01B680193FEE700BF00080020AB
:1023D00000B5044B04481B6883B0019300F078F803
:1023E000FEE700BF0008002040D700080000000002
:1023F000024B82B01B680193FEE700BF000800207B
:10240000F0B5294E294B3268294885B00024039243
:102410009C60D968274A4FF6FF0529400A43DA60D5
:10242000C2682549254D42F08072C2600A6842F0B8
:1024300001020A6010202022D87783F8222000F0C1
:10244000DFFA00F045FA01F073F801F091FF01F0B6
:10245000FFFF01F0C5F800F0FBF9402105F58860A9
:1024600000F01EFD0127164BC36180F82070A861A3
:1024700000F0A6F884F3118862B6AB69114A9A613C
:102480004FF4C4713A46104B009405F59D6000F07E
:102490009FFD039A33680D4981619A4201D105B0CD
:1024A000F0BDFFF73DF900BF0008002000ED00E09F
:1024B000F0ED00E00003FA05001000E078160020BF
:1024C00000040020E0D80008F123000860D70008CD
:1024D00000B5054B83B01B680193044672B6FFF745
:1024E00017FB024BDC62FEE7000800207816002094
:1024F0002DE9F047DFF890A0224DDAF8003082B0E5
:10250000019300F055F9AB6993F8232012B1013A19
:1025100083F823205A6ADFF8748001325A6200F08F
:1025200047F9AB6AEA6901334245AB6220D0936850
:10253000013B9360EC69A668D6B94FF02009236887
:10254000E768E660C3F804802368EB6100F0C0F838
:1025500001F0E6F886F311882069B84789F31188FD
:1025600001F0C6F800F094F8EC69A368002BE6D0FF
:10257000019ADAF800309A4202D102B0BDE8F08741
:10258000FFF7CEF8781600200008002094160020EF
:1025900010B5094C094A236882B001935168536809
:1025A0005B1A9842FBD8019A23689A4201D102B083
:1025B00010BDFFF7B5F800BF00080020001000E0D4
:1025C00000B50E4A0E4B116B186883B0019009B923
:1025D000526B4AB1019A1B689A420CD1094803B068
:1025E0005DF804EBFFF774BF019A1B689A4202D1B1
:1025F00003B05DF804FBFFF793F800BF78160020E6
:102600000008002070D70008000000000000000053
:1026100030B50B4C0B4D236B2A6883B001920BB97C
:10262000636B13B10848FFF753FF019A2B68012130
:102630009A42616301D103B030BDFFF771F800BF6A
:102640007816002000080020A0D700080000000035
:1026500030B50C4C0C4D236B2A6883B0019253B9F2
:10266000636B002B07DD019A2B6800219A4261639E
:1026700005D103B030BD0548FFF72AFFF3E7FFF7A8
:102680004FF800BF7816002000080020C0D70008CF
:1026900030B50B4C0B4D236B2A6883B0002B019295
:1026A00001DD636B13B10848FFF712FF019A2B6835
:1026B00001219A42616301D103B030BDFFF730F8C8
:1026C0007816002000080020B0D7000800000000A5
:1026D00030B50C4C0C4D236B2A6883B0002B019253
:1026E0000ADD636B002B07DD019A2B6800219A42FB
:1026F000616305D103B030BD0448FFF7E9FEF3E79D
:10270000FFF70EF87816002000080020D0D7000848
:1027100030B50F4D83B02B680193202383F31188CC
:102720000C4C236B002B01DB626B1AB10A48FFF7DC
:10273000CFFE236B01332363002383F31188019AB7
:102740002B689A4201D103B030BDFEF7E9FF00BF0C
:10275000000800207816002080D700080000000044
:1027600030B50F4D83B02B680193202383F311887C
:102770000C4C236B002B01DD626B1AB10A48FFF78A
:10278000A7FE236B013B2363002383F31188019A87
:102790002B689A4201D103B030BDFEF7C1FF00BFE4
:1027A000000800207816002090D7000800000000E4
:1027B00000B50F4A0F4B116B186883B000290190C8
:1027C00009DB526B002A06DD019A1B689A420CD184
:1027D00003B05DF804FB019A1B689A4205D10648D4
:1027E00003B05DF804EBFFF773BEFEF799FF00BF7F
:1027F0007816002000080020E0D700080000000044
:1028000000B50E4A0E4B116B186883B0019049B9A0
:10281000526B002A06DD019A1B689A420CD103B064
:102820005DF804FB019A1B689A4205D1054803B084
:102830005DF804EBFFF74CBEFEF772FF7816002040
:1028400000080020F0D70008000000000000000091
:1028500010B5084A084B116882B0402401910199D3
:10286000126818199142C3E90E4001D102B010BD9F
:10287000FEF756FF00080020781600200000000038
:1028800010B51149114B0A6882B00192DA6B9C6A4B
:102890001460DA6B9C695460DA6B846A9460DA6B5A
:1028A00090F820001073DA6B03F5886010328242D2
:1028B00028BF03F14002DA63019A0B689A4201D102
:1028C00002B010BDFEF72CFF000800207816002093
:1028D00010B50B4A0B4B116882B04FF0FF340191D9
:1028E00000219962019811685C6203F11C02884220
:1028F000C3E9072201D102B010BDFEF711FF00BFEE
:1029000000080020781600200000000000000000F1
:102910002DE9F041184E82B00546306801900C4612
:1029200017469846FFF744FF05B3FFB1F4B1C5E978
:1029300003781248C3699A68944204D91B68A41AA0
:102940009A68A242FAD32B605A686A6015605D608B
:10295000AC609968019D3268091B95424FF0FF34C5
:102960009960446206D102B0BDE8F0810448FFF7E7
:10297000AFFDDCE7FEF7D4FE00080020781600204B
:1029800000D8000800000000000000000000000067
:1029900030B5164D83B004462B680193FFF708FF4E
:1029A000ECB1E368BBB12268A06893680199034465
:1029B0009360D4E900231A6020682B680C4A65688C
:1029C000456099424FF000054FF0FF30E5605062DE
:1029D00009D103B030BD0748FFF77AFDE3E70548AA
:1029E000FFF776FDDDE7FEF79BFE00BF0008002045
:1029F0007816002010D80008000000000000000039
:102A000000B50A4A0A4B11681B6083B0002001918F
:102A1000019912685B609142C3E90433986002D166
:102A200003B05DF804FBFEF77BFE00BF000800204A
:102A300078160020000000000000000000000000E8
:102A400030B5164D83B004462B680193FFF7B0FEF6
:102A5000ECB194F82030B3B10F2B14D00022A16850
:102A60000F4B84F820201B689A688A42FBD22360AF
:102A70005A686260146001992A685C60914220463D
:102A800009D103B030BD0748FFF722FDE6E705484E
:102A9000FFF71EFDDDE7FEF743FE00BF0008002044
:102AA0007816002020D80008000000000000000078
:102AB00070B5204D82B02B6801930446202383F328
:102AC000118800F015FEFFF7E3FD94F82030072B86
:102AD00011D8DFE803F0161010230A04100AA66AC2
:102AE000FFF766FEB3680133B360D4E900231A60D0
:102AF000D4E900325A604FF0FF33A3622046FFF75B
:102B00009FFFFFF7E5FD00F00BFE002383F3118824
:102B1000019A2B689A420BD102B070BDA36A0022C1
:102B20001A604FF0FF33A3622046FFF789FFE8E702
:102B3000FEF7F6FD00080020000000000000000085
:102B4000F0B5194E194C336883B007460193FFF76F
:102B500057FEA569236885F82070142285F8232084
:102B60001A68226001215460284683F82010A3616E
:102B7000FFF786FE2946A06900F06AFDEFF309839E
:102B8000EA69643B9A4202D90948FFF7A1FC019A1D
:102B900033689A4206D1A069294603B0BDE8F040E7
:102BA000FDF786BBFEF7BCFD00080020781600206C
:102BB00030D8000800000000000000000000000005
:102BC000F0B5154C87B0236805930E460746FFF70E
:102BD00017FE731C18D0114D114AAB693146684677
:102BE000FFF796FE3846FFF7ABFFFFF7E1FD039BCB
:102BF00013B16846FFF7CCFE059A2368A9699A428B
:102C0000886A06D107B0F0BD3846FFF799FF034D3B
:102C1000F2E7FEF785FD00BF0008002078160020CF
:102C2000B12A0008000000000000000000000000C1
:102C3000F0B51E4D1E4E2B6883B0044601930F461F
:102C4000FFF7DEFDB069A7628368A2689A421DD9CA
:102C5000FFF7F6FE0123074684F82030B461FFF742
:102C60000FFE3946204600F0F3FCEFF30983FA69C2
:102C7000643B9A4214D8019A2B689A4214D139467F
:102C8000204603B0BDE8F040FDF712BB019A2B6867
:102C90009A4209D1204603B0BDE8F040FFF7D0BE0C
:102CA0000448FFF715FCE6E7FEF73AFD00080020B0
:102CB0007816002030D80008000000000000000056
:102CC00010B50E490E4B8A69086892F823101C68EB
:102CD0008068926882B0019449B9904234BF002064
:102CE0000120019A1B689A4206D102B010BD9042A1
:102CF00094BF00200120F4E7FEF712FD78160020B3
:102D0000000800200000000000000000000000009B
:102D100070B5184C184E2368A5691A682260546073
:102D2000012283F8202082B01422316885F8232004
:102D30002846A3610191FFF783FE2846FFF7A0FD17
:102D40002946A06900F084FCEFF30983EA69643B3B
:102D50009A4202D90948FFF7BBFB019A33689A42AD
:102D600006D1A069294602B0BDE87040FDF7A0BABF
:102D7000FEF7D6FC781600200008002030D80008A6
:102D800070B51C4D1C4E2A68AC6913682B6001217C
:102D900082B05D60002082F82010AA613268A168CC
:102DA00084F82000019200E01B689A688A42FBD8F0
:102DB00023605A686260204614605C60FFF760FD23
:102DC0002146A86900F044FCEFF30983E269643B03
:102DD0009A4202D90948FFF77BFB019A33689A426D
:102DE00006D1A869214602B0BDE87040FDF760BA7F
:102DF000FEF796FC781600200008002030D8000866
:102E000010B50F4C82B023680193FFF7F9FCFFF770
:102E1000CFFC0C4B1A689B6992689B689A42019A96
:102E2000236803D89A4208D102B010BD9A4204D157
:102E300002B0BDE81040FFF7A3BFFEF771FC00BF72
:102E400000080020781600200000000000000000AC
:102E500000B50E4A0E4B9269196892F8232083B090
:102E6000019142B1019A1B689A420DD103B05DF8FD
:102E700004EBFFF785BF019A1B689A4204D103B0A7
:102E80005DF804EBFFF744BFFEF74AFC781600201C
:102E9000000800200000000000000000000000000A
:102EA000F0B51A4A1A4D02610446816083B01423BA
:102EB00050692E68616484F82330022700230121C1
:102EC000278484F82210C4E90F3304F16801A36158
:102ED000019604F12C07636204F1500604F13003FB
:102EE00060610461C4E90C33E1613046E76254611A
:102EF00000F0B6FA304600F0D3FA019A2B689A42F5
:102F000002D1204603B0F0BDFEF70AFC781600207F
:102F10000008002000000000000000000000000089
:102F200010B5094B82B01C680194884203D200F8A6
:102F3000012B8142FBD1019A1B689A4201D102B058
:102F400010BDFEF7EDFB00BF0008002000000000F0
:102F50002DE9F043184E83B0346801940546DDF83E
:102F600028900C4617469846FFF722FC15B1B4F599
:102F7000BC7F19D21148FFF7ABFAA4F164012944D0
:102F8000E960C1F84080EB68019AC3F84490336867
:102F9000E9680B4808669A420CD13946284603B0C6
:102FA000BDE8F043FFF77CBF7F2FE3D8B8F1000FF7
:102FB000E3D1DFE7FEF7B4FB0008002080D800086B
:102FC000C90200080000000000000000000000002E
:102FD0002DE9F04FDFF8A48087B0D8F80040DDF885
:102FE0004090059407468A46934600F168060446D9
:102FF000FF2504F8015BA642FBD107EB0A05A542B9
:1030000004D9552604F8016BA542FBD10393202275
:1030100082F3118800F03CFBFFF7FAFA039BCDF82E
:1030200000905A4651463846FFF792FF0021044669
:10303000FFF7FEFDFFF70CFB00F042FB0D4B1A689B
:103040009A4204D0996993688A689A420BD3002304
:1030500083F31188059AD8F800309A42204606D1A9
:1030600007B0BDE8F08F0448FFF732FAEFE7FEF74C
:1030700057FB00BF7816002040D800080008002049
:1030800030B5184C83B0236801930546202383F3A1
:10309000118800F0FDFAFFF7BBFA15B91248FFF7E7
:1030A00017FA29460820FFF78BFDFFF7D1FA00F049
:1030B00007FB0E4B1A689A4204D0996993688A6894
:1030C0009A4208D3002383F31188019A23689A4215
:1030D00005D103B030BD0648FFF7FAF9F2E7FEF775
:1030E0001FFB00BF0008002050D800087816002001
:1030F00040D80008000000000000000000000000B0
:10310000F0B51C4F83B03B68019304460E46202364
:1031100083F31188184D00F0BBFAFFF779FAA96A1A
:10312000331B0C1B9C4219D3FFF792FA00F0C8FA2C
:103130002B68AB4204D0AA699B6892689A4209D373
:10314000002383F31188019A3B689A4230460FD1DD
:1031500003B0F0BD0948FFF7BBF9F1E7741A02D1DB
:103160000748FFF7B5F921460820FFF729FDDBE7FF
:10317000FEF7D6FA000800207816002040D8000894
:1031800050D800080000000000000000000000000F
:1031900070B5164B164E9C693268E36AA06282B025
:1031A00004F12C05AB42019207D01A68E26218467E
:1031B000FFF746FCE36AAB42F7D194F821309B0756
:1031C00005D1D4E904231A61D4E904325A610F20ED
:1031D000FFF7B6FC019A33689A4205D1054802B060
:1031E000BDE87040FFF774B9FEF79AFA7816002030
:1031F0000008002090D80008000000000000000037
:1032000030B50C4C83B0236801930546202383F32B
:10321000118800F03DFAFFF7FBF9019A23689A4202
:1032200005D1284603B0BDE83040FFF7B1BFFEF737
:1032300077FA00BF00080020000000000000000036
:10324000F0B50D4D0D4E03682A68B76983B004468A
:10325000019213B10A48FFF73BF927600320BC62D3
:10326000FFF76EFC019A2B68B1699A42886A01D116
:1032700003B0F0BDFEF754FA0008002078160020D5
:10328000A0D80008000000000000000000000000BE
:10329000F0B5124D0368124A83B0044628680190C5
:1032A0000E46976913B10F48FFF712F966B1276010
:1032B000019A2B68BC629A420ED13146032003B0BA
:1032C000BDE8F040FFF77CBC019A2B689A424FF0B2
:1032D000FF3001D103B0F0BDFEF722FA0008002054
:1032E00078160020B0D800080000000000000000A0
:1032F000F0B5124D04682B6883B00193B4B194F813
:103300002030032B06460F460CD100233360019A70
:103310002B68A7629A420FD1204603B0BDE8F04067
:10332000FFF78EBB0648FFF7D3F8EEE7019A2B684C
:103330009A4201D103B0F0BDFEF7F2F90008002077
:10334000D0D80008000000000000000000000000CD
:1033500030B5104A83B01368019381B10E4B019DC3
:103360009B69186044685C60236012684360954202
:103370000DD1042003B0BDE83040FFF721BC019916
:10338000136899424FF0FF3001D103B030BDFEF712
:10339000C7F900BF000800207816002000000000D8
:1033A00070B5124D04682B6882B0A042019315D00D
:1033B00023680360586094F82030042B0E4602D036
:1033C0000B48FFF785F8019A2B68A6629A420BD149
:1033D000204602B0BDE87040FFF732BB019A2B686F
:1033E0009A4201D102B070BDFEF79AF900080020A0
:1033F00060D800080000000000000000000000008D
:103400002DE9F041DFF850800468D8F8003082B030
:10341000A042019313D00F4F05460E4623682B6040
:103420005D6094F82030042B02D03846FFF750F846
:10343000A6622046FFF704FB2C68A542EED1019A54
:10344000D8F800309A4202D102B0BDE8F081FEF710
:1034500067F900BF60D800080008002000000000E5
:1034600030B50B4B83B01A6801924FF0FF32026007
:1034700001991A680024002300259142C0E90445FF
:10348000C0E90133C36001D103B030BDFEF748F994
:103490000008002000000000000000000000000004
:1034A00000B5084B084A196883B001915168019A28
:1034B0001B6881609A4202D103B05DF804FBFEF7FD
:1034C0002FF900BF00080020001000E000000000FD
:1034D000F0B51449144B0A68846883B00192134A0A
:1034E0005B68D2F8A864C2681B1BD0E904450132AE
:1034F0009B1BC26042688360E61845F10007934257
:10350000C0E9046709D80268934238BF0360019A92
:103510000B689A4203D103B0F0BD4360F7E7FEF7B2
:10352000FFF800BF00080020001000E0781600201F
:1035300030B5114D114C2B6889B04FF0FF31079316
:10354000002300226846C4F8A834CDE90133039370
:103550000023CDE904230091FFF7A2FF6846FFF79F
:10356000B7FF079A2B680299C4F8A8149A4201D1B0
:1035700009B030BDFEF7D4F800080020781600200E
:103580002DE97048134E144B326883B001925B688A
:103590008B60D0E902411B1BD0E90445426814EB63
:1035A000030B45F1000C01319342C0E90231C0E93F
:1035B00004BC0AD80268934238BF0360019A33689A
:1035C0009A4204D103B0BDE870884360F6E7FEF785
:1035D000A7F800BF00080020001000E00000000075
:1035E00030B50D4D0D4C2B6883B004F597600193F9
:1035F0000023C4F8B034C4F8B434FFF731FF019AA3
:103600002B689A4206D104F59A6003B0BDE83040B9
:10361000FFF726BFFEF784F8000800207816002088
:1036200000B50949094A0B6883B001930198D2F8A3
:10363000B034096801338842C2F8B03402D103B013
:103640005DF804FBFEF76CF80008002078160020F7
:1036500070B50D4C0D4A236882B00193019DD2F8DC
:10366000B43424680133A542C2F8B43409D10E46FB
:1036700000F1500106F1500002B0BDE87040FFF7C4
:103680007FBFFEF74DF800BF00080020781600202D
:1036900000B5084B83B01A680192019A1B689A42E0
:1036A00005D1054803B05DF804EBFFF7F9BEFEF75E
:1036B00037F800BF00080020301B00200000000089
:1036C00000B5084B83B01A680192019A1B689A42B0
:1036D00005D1054803B05DF804EBFFF7F9BEFEF72E
:1036E0001FF800BF00080020301B00200000000071
:1036F00000B5084B83B01A680192019A1B689A4280
:1037000005D1054803B05DF804EBFFF7C9BEFEF72D
:1037100007F800BF00080020481B00200000000040
:1037200000B5084B83B01A680192019A1B689A424F
:1037300005D1054803B05DF804EBFFF7C9BEFDF7FE
:10374000EFFF00BF00080020481B00200000000021
:1037500030B50B4D83B02B680193044650B1246003
:1037600001992A68646000239142A360236105D116
:1037700003B030BD0348FEF7ABFEF0E7FDF7D0FF26
:103780000008002010D90008000000000000000020
:10379000F0B55D4E5D4B32689D6983B00446019281
:1037A000FFF72EF8002C00F08480A0682369002821
:1037B00043D0002B40F39780854276D0AA68836877
:1037C0009A4208D990F820308260062B40D0072B0F
:1037D00073D0002B5DD02746234603E09968AA6882
:1037E000914233D31B689C42F8D12F607B686B6099
:1037F00006201D607D60AC62FFF7A2F9A368AB42B2
:1038000002D04348FEF764FE2B6CA34202D040482E
:10381000FEF75EFE2369012B05D1019A33689A42B7
:103820006FD103B0F0BD019A33689A4269D138482C
:1038300003B0BDE8F040FEF74BBE002B58D101337A
:10384000A56023612B6CE3602C64E6E71F46CCE7A0
:10385000D0E900231A60D0E900325A60876A3B46FB
:1038600003E099688268914247D31B689F42F8D170
:1038700007607B68436018607860836AAA6898680C
:1038800083689342A7D290F820308260062B9ED1A5
:10389000DEE7D0E90023012180F820101A60D0E98A
:1038A00000325A60FFF7CCF895E7236901332361B2
:1038B000B3E71748FEF70CFE77E7D0E900231A605C
:1038C000D0E900325A60876A3B4603E09968826813
:1038D000914214D31B689F42F8D107607B68436014
:1038E0001860786077E70A48FEF7F2FDA06863E7A2
:1038F0000748FEF7EDFD2369A1E71F46B8E71F461D
:10390000EBE7FDF70DFF00BF000800207816002050
:1039100020D90008000000000000000000000000A6
:1039200030B5154C83B0236801930546202383F3FB
:103930001188FFF7ADFEFEF76BFE2846FFF728FF64
:10394000FEF786FEFFF7BCFE0C4B1A689A4204D0C5
:10395000996993688A689A4208D3002383F311888F
:10396000019A23689A4205D103B030BD0448FEF79E
:10397000AFFDF2E7FDF7D4FE000800207816002026
:1039800000D9000800000000000000000000000056
:103990002DE9F043DFF800813C4FD8F80030BE69D4
:1039A00083B005460193002864D0202383F3118857
:1039B000FFF76EFEFEF72CFE336C002B5ED09B688B
:1039C000B34202D03248FEF783FD2B69002B49DD5C
:1039D000013B2B615BBB336CAB4202D02C48FEF742
:1039E00077FDEB683364FEF70BFF2B689D423ED0FA
:1039F000D6E910495CB1FEF703FF23689C4203D06F
:103A00009B68994538BF9946E468002CF3D1C6F805
:103A100008902B6801222A611A682A605560AB6001
:103A20001A6CEA6018461D640021FFF701F9FEF7E1
:103A30000FFEFFF745FE3B68BB4204D0BA699B68A6
:103A400092689A420AD3002383F31188019AD8F826
:103A500000309A4217D103B0BDE8F0830D48FEF75D
:103A600037FDF0E70A48FEF733FD2B69B0E7002386
:103A7000AB60DCE70648FEF72BFD96E70448FEF74F
:103A800027FD336C9BE7FDF74BFE00BF7816002047
:103A900030D9000800D9000800080020000000000C
:103AA0002DE9F041DFF8D880334BD8F800209E692B
:103AB00082B005460192FEF7A3FE002D4FD0336C75
:103AC000002B52D09B68B34202D02C48FEF700FD79
:103AD0002B69002B3EDD013B2B61002B32D1336C77
:103AE000AB4202D02548FEF7F3FCEB683364FEF7E7
:103AF00087FE2B689D4223D0D6E910475CB1FEF7C4
:103B00007FFE23689C4203D09B689F4238BF1F46BC
:103B1000E468002CF3D1B7602868019901232B6178
:103B200003682B60D8F800205D60A860036CEB6030
:103B3000914205641ED102B0BDE8F041FEF780BF9E
:103B40000023AB60019AD8F800309A4212D102B03B
:103B5000BDE8F0810948FEF7BBFC2B69BBE70748CD
:103B6000FEF7B6FC336C002BACD10448FEF7B0FC7A
:103B7000336CA7E7FDF7D4FD7816002040D9000884
:103B8000000800200000000000000000000000000D
:103B900070B5114E82B0044633680193FEF708FEFB
:103BA0009CB12068A0420AD06FF001050368236031
:103BB0005C60FEF745FF85622068A042F6D1019A5D
:103BC00033689A4205D102B070BD0448FEF780FC0C
:103BD000E7E7FDF7A5FD00BF0008002060D9000859
:103BE00030B5164C83B0236801930546202383F338
:103BF0001188FFF74DFDFEF70BFD2846FFF7C8FFC4
:103C0000FFF7FEF8FEF724FDFFF75AFD0C4B1A688C
:103C10009A4204D0996993688A689A4208D300232B
:103C200083F31188019A23689A4205D103B030BD0D
:103C30000448FEF74DFCF2E7FDF772FD0008002096
:103C40007816002050D90008000000000000000095
:103C50002DE9F0411E4F1F4E3B68B46982B0054606
:103C60000193FEF7CDFD65B3236C33B3B369D3F88D
:103C700040804046FFF714FF2E46A5622B4603E026
:103C80009968A268914216D31B689D42F8D12660BC
:103C90007368636007201C607460FEF751FF404644
:103CA000A46AFFF775FD019A3B689A4220460CD141
:103CB00002B0BDE8F0811E46E9E70748FEF708FCC0
:103CC000D4E70548FEF704FCCEE7FDF729FD00BF69
:103CD000000800207816002080D9000800000000AD
:103CE00030B5164C83B0236801930546202383F337
:103CF0001188FFF7CDFCFEF78BFC2846FFF7A8FFE5
:103D00000546FEF7A5FCFFF7DBFC0D4B1A689A424F
:103D100004D0996993688A689A4209D3002383F38F
:103D20001188019A23689A42284605D103B030BD14
:103D30000448FEF7CDFBF1E7FDF7F2FC0008002098
:103D40007816002050D90008000000000000000094
:103D50002DE9F0431D4F83B03C68019491460C4619
:103D60009846064660B359B3202383F31188FFF7C2
:103D70008FFC174DFEF74CFC336823603460AB6951
:103D800063600023C4E90338C4F80890FEF760FCC0
:103D9000FFF796FC2B68AB4204D0AA699B68926837
:103DA0009A4209D3002383F31188019A3B689A420F
:103DB0000AD103B0BDE8F0830648FEF789FBF1E7BE
:103DC0000548FEF785FBCFE7FDF7AAFC00080020B9
:103DD0007816002090D90008A0D900080000000043
:103DE00070B5184E82B00446336801930D46FEF755
:103DF000DFFC0CB3E16B94F8203029430A2BE1631C
:103E000016D00B2B05D0019A33689A4218D102B014
:103E100070BDA36A8B43F6D1019A336800219A42A0
:103E2000A1620DD1204602B0BDE87040FEF708BE89
:103E3000A36A1942F0D1E6E70348FEF749FBD9E748
:103E4000FDF76EFC00080020E0D90008000000002B
:103E5000F0B5134F83B006463B6801930D46FEF75D
:103E6000A7FCB6B13468A6420DD0E3682B43E360EB
:103E700015B12269134203D0D4E90101FFF7B0FF65
:103E80002468A642F1D1019A3B689A4205D103B059
:103E9000F0BD0448FEF71CFBE4E7FDF741FC00BF62
:103EA00000080020C0D90008000000000000000049
:103EB00070B50C4CC16082B0266801960A4400605F
:103EC000019E02612268069D4060C0E9051196428C
:103ED0004FF00001C3618160056201D102B070BD85
:103EE000FDF71EFC0008002000000000000000009C
:103EF00070B5164D82B004462B6801930E46FEF74E
:103F000057FCFEF755FCD4E905239A42A36816D066
:103F10000133511CA36061611670D4E904329A42E6
:103F20000AD220460021FFF73BFA0020019A2B68B5
:103F30009A4209D102B070BDE3686361F1E7002BDA
:103F4000E6D06FF00300F1E7FDF7EAFB0008002080
:103F5000F0B5234F83B03B68019304460E462023FF
:103F600083F31188FFF794FBFEF752FBE36943B13B
:103F70002046984705E031462046FFF7E9F9051E3F
:103F800010DBFEF715FCA368002BF4D0A1692069B3
:103F90004A1C013B8242A360A26128BFE3680D78FE
:103FA00028BFA361FEF754FBFFF78AFB0D4B1A688D
:103FB0009A4204D0996993688A689A4209D3002387
:103FC00083F31188019A3B689A42284605D103B0D1
:103FD000F0BD0548FEF77CFAF1E7FDF7A1FB00BF55
:103FE0000008002078160020F0D90008000000002A
:103FF0002DE9F04FDFF8F490044685B0D9F80000C1
:1040000003908A461D46D4F81C809346002A60D04F
:10401000202383F311880193FFF73AFBFEF7F8FAA8
:104020002F4E0027B8F1000F07D02046C04704E00C
:1040300029462046FFF78CF960BBFEF7B9FBA36861
:10404000002BF5D0A269013B511CA161A36013783C
:104050000AF8013B2369A2699A4224BFE368A3617D
:10406000FEF7F6FAFFF72CFB3368B34204D0B269CF
:104070009B6892689A4228D3002383F31188013702
:10408000BB4519D0019B83F31188FFF701FBFEF7B5
:10409000BFFAC7E7FEF7DCFAFFF712FB3368B3425B
:1040A00007D0B2699B6892689A4202D20D48FEF727
:1040B0000FFA002383F31188039AD9F800309A424B
:1040C00038460AD105B0BDE8F08F0648FEF700FA81
:1040D000D2E70548FEF7FCF99AE7FDF721FB00BFA0
:1040E00078160020F0D9000800DA00080008002047
:1040F00070B50B4D82602E68C16082B0C0E90000CF
:1041000001960A44019E02612A68069C9642C0E913
:104110000511C0E9073401D102B070BDFDF700FB05
:104120000008002000000000000000000000000067
:104130002DE9F0412E4F82B03B680193044688463A
:104140001646202383F31188FFF7A2FAFEF760FAE0
:1041500005E031462046FFF7FBF8051E2DDBFEF794
:1041600027FBA368002BF4D06269013B511C6161FD
:10417000A36082F80080D4E904329A4224BFE36845
:104180006361E3690BB120469847FEF761FAFFF7D8
:1041900097FA184B1A689A4204D0996993688A680A
:1041A0009A421ED3002585F31188019A3B689A42F2
:1041B00028461AD102B0BDE8F081FEF749FAFFF7B0
:1041C0007FFA0C4B1A689A4207D0996993688A68FB
:1041D0009A4202D20848FEF77BF9002383F3118844
:1041E000E3E70548FEF774F9DCE7FDF799FA00BF4D
:1041F0000008002078160020F0D900080000000018
:1042000070B5154E82B0044633680193FEF7D0FABC
:10421000FEF7CEFAD4E905329342A36815D020699F
:10422000511C0133A360A161814215780AD2204656
:104230000021FFF7B5F82846019A33689A4209D160
:1042400002B070BDE368A361F1E7002BE7D06FF027
:104250000200F1E7FDF764FA00080020000000000A
:104260002DE9F04F04463B48D4F81C90006885B017
:104270000D46039001931646002A61D04FF0200AA4
:104280008AF31188FFF704FAFEF7C2F94FF000082D
:10429000314FC346FEF78CFAA368002B32D0626917
:1042A000013B511C6161A3602B781370D4E9043287
:1042B0009A4224BFE36863610135B9F1000F01D070
:1042C0002046C847FEF7C4F9FFF7FAF93B68BB423E
:1042D00007D0BA699B6892689A4202D21F48FEF7DB
:1042E000F7F88BF31188013E08F101081FD08AF31B
:1042F0001188FFF7CDF9FEF78BF9FEF759FAA3689D
:10430000002BCCD101992046FFF722F80028C1D01C
:10431000FEF79EF9FFF7D4F93B68BB4204D0BA69B7
:104320009B6892689A420FD3002383F31188094B4C
:10433000039A1B689A4240460AD105B0BDE8F08F47
:104340000748FEF7C5F899E70448FEF7C1F8EBE720
:10435000FDF7E6F90008002078160020F0D90008E3
:1043600010DA00080000000000000000000000005B
:1043700030B50B490B4A0B680B4D0C4C83B022F047
:104380000702019301980A4B09682A6023F007038A
:104390008842236001D103B030BDFDF7C1F900BFF1
:1043A000000800205F250020EC1C0020E81C0020F5
:1043B00000000220000000000000000000000000DB
:1043C00070B51C4E82B0336801930446202383F3FA
:1043D0001188FFF75DF9FEF71BF9FEF7E9F9164AB8
:1043E000164B15681B68E01D20F007005B1B984208
:1043F0009ABF401910600025FEF72AF9FFF760F90F
:104400000F4B1A689A4204D0996993688A689A4255
:1044100009D3002383F31188019A33689A4228460E
:1044200005D102B070BD0748FEF752F8F1E7FDF77D
:1044300077F900BF00080020EC1C0020E81C0020D9
:104440007816002030DA00080000000000000000AC
:1044500000B50B4B0B481A6883B0019201991A689A
:10446000094B036091424FF00003C0E9023305D1CC
:10447000103003B05DF804EBFFF76AB9FDF750F9AF
:1044800000080020F01C0020C143000800000000CC
:1044900080B50D4A0D4982B000AF13687B604B6850
:1044A00023F001034B60EFF30983683383F309883A
:1044B000002383F3118879681368994202D1083781
:1044C000BD4680BDFDF72CF90008002030EF00E06C
:1044D000B0B5194C82B000AF23687B60202383F312
:1044E0001188164B5B6813F4006308D183F31188BD
:1044F0007A6823689A421DD10837BD46B0BDF1EEF7
:10450000103AEFF309854FF080720D4B45F84C2CB3
:10451000DB6845F8083CA5F1680383F30988FEF7DA
:10452000CFFB18B1074B45F8503CE1E7064B45F887
:10453000503CDDE7FDF7F4F80008002000ED00E056
:1045400030EF00E0E1020008F40200080000000083
:1045500010B5184C82B02368019302F051F8164848
:1045600003F06EFB00F0D4F800F00AF900F050F907
:1045700000F07EF900F0ACF900F0DAF900F060FB31
:1045800000F08EFB00F0FCFF00F002FF01F0D0F81D
:1045900001F016F901F0BCF805F082F8019A2368E1
:1045A0009A4204D102B0BDE8104001F0F1B8FDF725
:1045B000B7F800BF0008002010DF0008000000006E
:1045C000F0B51A4D83B02B68019391420E46144604
:1045D000074619D38B1A1F2B16D806F01F03581C39
:1045E0006209012376098340B24203F1FF3304F0EC
:1045F0001F0457F822000BD31840E040019A2B68A3
:104600009A4210D103B0F0BD0948FDF761FFE4E71D
:1046100057F82610C4F120020B4020FA04F403FAE4
:1046200002F02043EAE7FDF77BF800BF0008002016
:1046300040DA000800000000000000000000000058
:10464000F0B51D4E83B033680193054670B37E22EA
:104650007F212846FFF7B4FF80B1012806D0002053
:10466000019A33689A4225D103B0F0BD2846302222
:104670004521FFF7A5FF01308002F1E73E224921E5
:104680002846FFF79DFF2F22044631212846FFF7D9
:1046900097FF5022074653212846FFF791FF013428
:1046A00002370938BC4004FA00F0D9E70348FDF7A7
:1046B0000FFFCCE7FDF734F80008002060DA0008AF
:1046C000F0B5104D83B02B680193044698B194F86F
:1046D000D63094F8D770019994F8D4602A6894F889
:1046E000D5001B0403EB07633344914203EB002026
:1046F00005D103B0F0BD0448FDF7EAFEE7E7FDF79A
:104700000FF800BF0008002080DA00080000000059
:1047100000B5074B83B01A680192019A1B689A4250
:1047200004D103B05DF804EB02F02AB8FCF7F8FFFF
:104730000008002000000000000000000000000051
:1047400000B50C4B83B01A680192012202700199E6
:104750001A6800239142C0E90133C0E90333436181
:1047600005D1183003B05DF804EBFEF7F1BFFCF79C
:10477000D7FF00BF0008002000000000000000007C
:1047800000B5074B83B01A680192019A1B689A42E0
:1047900004D103B05DF804EB02F09ABDFCF7C0FF52
:1047A00000080020000000000000000000000000E1
:1047B00030B5134B83B01A68019201220270019C3C
:1047C0001968002200F1180300F11C0542608361A2
:1047D00000F1200200F12403C561026200F1280506
:1047E00000F1080243628C4200F110038562C0E9C7
:1047F0000222C0E9043301D103B030BDFCF790FFC1
:104800000008002000000000000000000000000080
:1048100000B5074B83B01A680192019A1B689A424F
:1048200004D103B05DF804EB03F0EAB9FCF778FFBC
:104830000008002000000000000000000000000050
:1048400000B50A4B83B01A680192012202700199E7
:104850001A6800239142C0E9043305D1183003B02F
:104860005DF804EBFEF774BFFCF75AFF0008002068
:1048700000B5074B83B01A680192019A1B689A42EF
:1048800004D103B05DF804EB02F042BDFCF748FF31
:1048900000080020000000000000000000000000F0
:1048A00000B5084B83B01A68019201220270019A88
:1048B0001B6800219A42416002D103B05DF804FBFD
:1048C000FCF72EFF000800200000000000000000A0
:1048D00000B5074B83B01A680192019A1B689A428F
:1048E00004D103B05DF804EB04F0BABBFCF718FF89
:1048F0000008002000000000000000000000000090
:1049000000B5084B83B01A68019201220270019A27
:104910001B6800219A42416002D103B05DF804FB9C
:10492000FCF7FEFE00080020000000000000000070
:1049300000B5074B83B01A680192019A1B689A422E
:1049400004D103B05DF804EB03F072BCFCF7E8FEA1
:10495000000800200000000000000000000000002F
:1049600000B50A4B83B01A68019201220270019AC5
:104970001B6800219A42416005D10C3003B05DF8FC
:1049800004EBFEF7E5BEFCF7CBFE00BF00080020FD
:1049900070B51F4D82B02B6801930E46044680B35C
:1049A00079B323785A1E012A04D9052B02D019485D
:1049B000FDF78EFD202383F31188FEF769FEFDF7D6
:1049C00027FE2046666003F05BFC02232370FDF7A0
:1049D0003FFEFEF775FE104B1A689A4204D09969A3
:1049E00093688A689A4208D3002383F31188019A56
:1049F0002B689A4209D102B070BD0848FDF768FDE6
:104A0000F2E70448FDF764FDCBE7FCF789FE00BF41
:104A100000080020B0DA000878160020A0DA0008AC
:104A200030B51D4D83B02B680193044670B32378D5
:104A30005A1E012A04D9052B02D01848FDF748FD5B
:104A4000202383F31188FEF723FEFDF7E1FD2046C6
:104A500003F056FD01232370FDF7FAFDFEF730FE4B
:104A60000F4B1A689A4204D0996993688A689A42EF
:104A700008D3002383F31188019A2B689A4209D145
:104A800003B030BD0748FDF723FDF2E70348FDF70B
:104A90001FFDCCE7FCF744FE00080020C0DA000848
:104AA00078160020A0DA00080000000000000000D6
:104AB00030B5094D83B02B680193044630B1019A9B
:104AC0002B68A0689A4205D103B030BD0348FDF7BA
:104AD000FFFCF4E7FCF724FE00080020D0DA000811
:104AE0002DE9F04F304E87B034680594DDF840B0C2
:104AF0000D4690461F46DDE9119A044608B100298B
:104B00003DD12A48FDF7E4FC2378022B02D0274848
:104B1000FDF7DEFC202383F31188FEF7B9FDFDF7D6
:104B200077FD4FF0000C0320C4F808C04246294628
:104B300020703B462046CDE9019ACDF800B003F045
:104B400037FD431C0CBF0523022323700546FDF7E8
:104B50007FFDFEF7B5FD164B1A689A4204D099699D
:104B600093688A689A4218D3002383F31188059AC0
:104B700033689A42284614D107B0BDE8F08F002B65
:104B8000BFD0002ABDD0B9F1000F02D0BBF1000F99
:104B9000B7D0BAF1000FB7D1B3E70648FDF798FCDC
:104BA000E2E7FCF7BDFD00BF00080020E0DA0008E6
:104BB00078160020A0DA00080000000000000000C5
:104BC00030B50B4C83B023680193054650B1019A70
:104BD00023689A420AD105F10C0003B0BDE83040C9
:104BE000FEF79EBE0348FDF773FCF0E7FCF798FD67
:104BF0000008002000DB00080000000000000000AA
:104C000030B50B4C83B023680193054650B1019A2F
:104C100023689A420AD105F10C0003B0BDE8304088
:104C2000FEF7B6BE0348FDF753FCF0E7FCF778FD4E
:104C30000008002010DB0008000000000000000059
:104C400000B5074B83B01A680192019A1B689A421B
:104C500004D103B05DF804EB04F022B9FCF760FD69
:104C6000000800200000000000000000000000001C
:104C700000B5084B83B01A68019201220270019AB4
:104C80001B6800219A42416002D103B05DF804FB29
:104C9000FCF746FD000800200000000000000000B6
:104CA00000B5074B83B01A680192019A1B689A42BB
:104CB00004D103B05DF804EB04F0C2BAFCF730FD98
:104CC00000080020000000000000000000000000BC
:104CD00000B5094B83B01A68019201220270019954
:104CE0001A68002391424360C360037402D103B089
:104CF0005DF804FBFCF714FD000800200000000034
:104D000070B5104D82B02B6801930E46044650B129
:104D100049B12379052B0CD00120019A2B689A42C6
:104D20000ED102B070BD0848FDF7D2FB2379052BE8
:104D3000F2D1A36A73604FF4007333600020ECE794
:104D4000FCF7EEFC0008002090DB000800000000EB
:104D50002DE9F047DFF89C8386B002AFD8F8003029
:104D6000FB600446002800F019812379022B01D052
:104D7000052B2BD103232371204602F061FB002277
:104D80001146204602F0D4FB07F108034FF4D57218
:104D90000821204602F014FCE0B9BB680122C3F3ED
:104DA00003239342226300F0FD80204602F080FB43
:104DB000022323710125FA68D8F800309A42284668
:104DC00040F046811037BD46BDE8F087C048FDF78A
:104DD0007FFBCFE707F1080300223721204602F0CE
:104DE000EFFB002840F0BE80BB68BA4A1A40002A98
:104DF00040F0B88022631146204602F099FB266BF2
:104E000006F00F03022B00F0AF80B34EB34ADFF879
:104E1000C492012B18BF1646642504E0013DC4D09E
:104E20000A20FEF72DF907F108030022372120465A
:104E300002F0C6FB0028B8D1BB6813EA090FB4D151
:104E400007F1080332462921204602F091FB002891
:104E5000ABD1BB68002BE1DA5B0003D5236B43F0D9
:104E60001003236304F1080300220221204602F00C
:104E70009FFC002899D1024604F138030321204603
:104E800002F09EFB002890D104F118052B46A26B7E
:104E90000921204602F08CFC002886D13B1DA26B24
:104EA0000721204602F08CFB824600287FF47DAF6C
:104EB000236B03F00F03022B00F097806E467E22D7
:104EC00090B07F212846FFF77BFB0DF108090028F1
:104ED00079D10146B546204602F0D2FA236B03F0A1
:104EE0000F03022B00F096802846FFF7A9FBA06273
:104EF0003B1D4FF400721021204602F061FB054675
:104F000000287FF452AF7B68724E33427FF44DAF7E
:104F1000236B03F00F03012B40F2B280022B7FF4CE
:104F200044AFE36A1A79012A00F0A88017D3022A55
:104F300040F0E2806A4E1979204602F0D1FA07F17A
:104F4000080332460621204602F03AFB00287FF48F
:104F50002CAFBA685F4B1340002B7FF426AF0523BC
:104F6000237128E7022323635E4E642505E0013D9B
:104F70003FF41BAF0A20FEF783F807F1080332461F
:104F80000121204602F0F4FA00287FF40EAFBB683E
:104F9000002BECDA5B007FF565AF5FE74C48FDF76F
:104FA00097FAE2E6024607F108033721204602F0AD
:104FB00007FB00287FF4F9AEBA68464B1340002B7C
:104FC0007FF4F3AE1BE7CDF800A00623402249464C
:104FD000204602F01DFC00284ED199F80D3013F048
:104FE000020337D11946B54675E7E36A1B687BB102
:104FF00007F108033C4A0621204602F0E1FA38B9DD
:10500000BB6834491940B1FA81F1490963E7B546F3
:10501000002160E77E227F212846FFF7D1FA012890
:105020007FF662AFE36A1D68002D3FF4BEAE002339
:1050300000934FF4007208232946204602F0E8FB53
:1050400000287FF4B2AE2846FFF73AFBA0624FE794
:10505000FCF766FB254B0093402206234946204679
:1050600002F0D6FB40B999F8103003F00F030F2B74
:10507000CDD0B54601212EE7B54696E61C4E5AE73F
:10508000E36A197900293FF46AAF01297FF48DAEF4
:10509000204602F025FA07F10803A26B37212046CB
:1050A00002F08EFA00287FF480AEBB6833427FF4B2
:1050B0007CAE07F1080302220621204602F080FAA6
:1050C00000287FF472AEBB6833423FF448AF6CE611
:1050D00040DB000808E0FFFD000010C00000108069
:1050E0000002B7030080FFC00001B903F1FFFF8099
:1050F0000001B703000800200248034EFDF7E8F95D
:10510000E36A18E720DB00080000B7030000000096
:105110002DE9F041194D82B02C6801940F4690465C
:105120001E460446C0B1BAB1B3B12379052B02D0F3
:105130001348FDF7CDF9781EA36A304498420FD981
:10514000636B43F0800363630120019A2B689A42EA
:1051500011D102B0BDE8F0810948FDF7B9F9E4E7E3
:1051600006203346207142463946204602F0B0FC04
:1051700005232371E9E7FCF7D3FA00BF00080020FC
:1051800060DB0008000000000000000000000000DC
:105190002DE9F041194D82B02C6801940F469046DC
:1051A0001E460446C0B1BAB1B3B12379052B02D073
:1051B0001348FDF78DF9781EA36A304498420FD941
:1051C000636B43F0800363630120019A2B689A426A
:1051D00011D102B0BDE8F0810948FDF779F9E4E7A3
:1051E00007203346207142463946204602F0B0FC83
:1051F00005232371E9E7FCF793FA00BF00080020BC
:1052000070DB00080000000000000000000000004B
:1052100070B50E4D82B02B680193044680B126799B
:10522000052E06D00120019A2B689A420CD102B0BB
:1052300070BD08232371204602F0CAFC2671F2E7F4
:105240000348FDF745F9EAE7FCF76AFA0008002091
:1052500080DB0008000000000000000000000000EB
:1052600070B5124D124E2B6882B0044601936B4606
:10527000A26B0D21204602F0A3F978B9009B3342BE
:105280000BD1C3F34323042B08D04FF0010005D307
:10529000072B03D8FDF7F4FEE9E70120019A2B68FC
:1052A0009A4201D102B070BDFCF73AFA0008002022
:1052B00008E0FFFD0000000000000000000000000A
:1052C00070B52D4E82B033680193044600284CD04F
:1052D000202383F31188FEF7DBF9FDF799F9237991
:1052E000022B29D0052B21D104232371FDF7B0F91E
:1052F000FEF7E6F9214B1A689A4204D0996993683F
:105300008A689A4229D3002383F311882046FFF745
:10531000A7FF0546204602F0CBF802232371019A2D
:1053200033689A42284624D102B070BD1448FDF774
:10533000CFF82379022BD7D1FDF78AF9FEF7C0F910
:105340000E4B1A689A4204D0996993688A689A4207
:1053500007D3002585F31188E1E70A48FDF7B8F87F
:10536000D1E70848FDF7B4F8F3E70548FDF7B0F8D2
:10537000AEE7FCF7D5F900BF000800207816002042
:1053800050DB0008A0DB0008000000000000000067
:1053900000B5074B83B01A680192019A1B689A42C4
:1053A00004D103B05DF804EB02F02AB8FCF7B8F9B9
:1053B00000080020000000000000000000000000C5
:1053C00010B50A4B0A4A1968026082B001240191A3
:1053D00001991A680471002391424363C0E90A33BA
:1053E00001D102B010BDFCF79BF900BF00080020FE
:1053F000B0DB00080000000000000000000000001A
:1054000030B5084C83B025680195019D2468A542FC
:1054100005D10C3003B0BDE83040FEF7E9BDFCF724
:105420007FF900BF0008002000000000000000001D
:1054300010B5094B82B01C680194019C1B689C420A
:1054400007D10C304FF0FF3302B0BDE81040FEF73B
:10545000CFBDFCF765F900BF000800200000000088
:1054600030B5084C83B025680195019D2468A5429C
:1054700005D1303003B0BDE83040FEF7F1BEFCF797
:105480004FF900BF000800200000000000000000ED
:1054900010B5094B82B01C680194019C1B689C42AA
:1054A00007D130304FF0FF3302B0BDE81040FEF7B7
:1054B000D7BEFCF735F900BF00080020000000004F
:1054C00000B5084B83B01A680192019A1B689A4292
:1054D00005D10C3003B05DF804EBFEF739BDFCF7E5
:1054E0001FF900BF000800200000000000000000BD
:1054F00000B5094B83B01A680192019A1B689A4261
:1055000007D10C304FF0FF3103B05DF804EBFEF72C
:105510001FBDFCF705F900BF0008002000000000D7
:1055200010B5084B82B01C680194019C1B689C421A
:1055300005D1303002B0BDE81040FEF7F9BDFCF7F0
:10554000EFF800BF0008002000000000000000008D
:1055500000B5094B83B01A680192019A1B689A4200
:1055600007D130304FF0FF3203B05DF804EBFEF7A7
:10557000DFBDFCF7D5F800BF0008002000000000E8
:1055800000B5074B83B01A680192019A1B689A42D2
:1055900004D103B05DF804EB03F0C2BFFCF7C0F820
:1055A00000080020000000000000000000000000D3
:1055B000F0B5144D144B2F68044685B040F8043BF9
:1055C0004FF0010C00940B461646606084F808C04A
:1055D00004F1540104F10C0010220397FEF768FC5B
:1055E00033461022009404F1640104F13000FEF708
:1055F0007FFD039A2B689A4201D105B0F0BDFCF7FC
:105600008FF800BF0008002000DC00080000000048
:1056100070B51D4D82B02B6801930E46044668B3E9
:10562000202383F31188FEF733F8FCF7F1FF237A88
:10563000013B012B02D91548FCF74AFF31462046B1
:1056400003F08EFF02232372FDF702F8FEF738F80D
:105650000F4B1A689A4204D0996993688A689A42F3
:1056600008D3002383F31188019A2B689A4209D149
:1056700002B070BD0748FCF72BFFF2E70348FCF7C8
:1056800027FFCDE7FCF74CF800080020E0DB00081E
:1056900078160020D0DB00080000000000000000A9
:1056A00070B5174D82B004462B6801930E46FDF786
:1056B0007FF8F4B1FDF77CF8636963B1314604F11A
:1056C0000C00FEF715FC0028019A2B6808DB9A42B3
:1056D00013D102B070BD04216018FEF7B9FBEDE7ED
:1056E0009A420AD1201D802102B0BDE87040FEF729
:1056F000AFBB0448FCF7ECFEDCE7FCF711F800BF99
:1057000000080020F0DB000800000000000000009E
:1057100000B5064B83B01A680192019A1B689A4241
:1057200002D103B05DF804FBFBF7FAFF000800208C
:1057300000B5074B83B01A680192019A1B689A4220
:1057400004D103B05DF804EB03F0D2BBFBF7E8FF34
:105750000008002000000000000000000000000021
:1057600000B50A4B83B01A680192012202700199B8
:105770001A6800239142C0E9013305D10C3003B00F
:105780005DF804EBFDF7E4BFFBF7CAFF000800205B
:1057900000B5074B83B01A680192019A1B689A42C0
:1057A00004D103B05DF804EB03F0B2BDFBF7B8FF22
:1057B00000080020000000000000000000000000C1
:1057C00000B5074B83B01A680192019A1B689A4290
:1057D00004D103B05DF804EB02F082BFFBF7A0FF39
:1057E0000008002000000000000000000000000091
:1057F00000B50C4B83B01A68019201220270019926
:105800001A6800239142C36183620362C3624362E8
:105810000363C0E9013302D103B05DF804FBFBF779
:105820007FFF00BF00080020000000000000000013
:10583000F0B5124D83B004462B6801930E46FCF779
:10584000B7FFA4B1012000FA06F362899BB212EA05
:10585000030706D1134320466381314603F058FA0B
:105860003846019A2B689A4205D103B0F0BD04482E
:10587000FCF72EFEE6E7FBF753FF00BF0008002011
:1058800020DC000800000000000000000000000014
:10589000F0B5124D83B004462B6801930E46FCF719
:1058A00087FFA4B1012000FA06F322899BB212EA15
:1058B000030706D1134320462381314603F048FAFB
:1058C0003846019A2B689A4205D103B0F0BD0448CE
:1058D000FCF7FEFDE6E7FBF723FF00BF0008002012
:1058E00040DC000800000000000000000000000094
:1058F00010B50D4A82B01168019102210170019C1E
:10590000116800228C42C264C0E90222C0E904226C
:10591000826180F8342004D102B0BDE8104002F06A
:105920000FBFFBF7FDFE00BF0008002000000000D5
:10593000F0B5C34D83B0044600222B6880F83420B4
:1059400000F14402019302F0D3FF63689B68002BCF
:1059500036D02046984798B3E16B94F8443094F8D9
:105960004B0094F84A2042EA00228A422CBF0A46A1
:10597000E2631806E16800F1A680002A00F0848046
:10598000042384F834308B69A16BD96000265A60F7
:105990001E709E603146204602F0C2FF202383F332
:1059A0001188FDF7A5FEFCF773FE31462046FFF790
:1059B0003FFFFCF78DFEFDF7B3FE86F3118816E07E
:1059C00094F8443013F06006184617D000212046A2
:1059D00003F006FA0021204603F0E2F963681B6831
:1059E00013B1052120469847062384F83430019AE4
:1059F0002B689A4240F03A8103B0F0BD94F845100C
:105A000003F07F0242EA0122B2F5407F00F00581F7
:105A100017D9B2F5C06F00F0C68040F28A80B2F5A7
:105A2000106F64D040F602418A4200F0D880B2F58F
:105A3000006FCBD104F14F0201212664C4E90E218D
:105A40008DE7022A00F0D28040F29280B2F5807F8A
:105A500060D0B2F5817FB9D194F84630002BB5D132
:105A600094F8483013F00F0107D01F06204600F1CC
:105A7000F38003F0D5F994F844000023C4E90E3311
:105A800023640306E16829D4052384F834304B6984
:105A900000261E70DE605E609E603146204602F089
:105AA000DFFF202383F31188FDF722FEFCF7F0FDD2
:105AB00031462046FFF7ECFEFCF70AFEFDF730FE0C
:105AC00086F3118893E74AB1012384F834304B6997
:105AD000A16BD96000265A601E70DDE7032384F8AD
